{
  "contractName": "VOYRMarketplace",
  "abi": [
    {
      "inputs": [
        {
          "internalType": "address",
          "name": "VOYR_Memories_address",
          "type": "address"
        }
      ],
      "stateMutability": "nonpayable",
      "type": "constructor"
    },
    {
      "anonymous": false,
      "inputs": [
        {
          "indexed": false,
          "internalType": "address",
          "name": "seller",
          "type": "address"
        },
        {
          "indexed": false,
          "internalType": "address",
          "name": "buyer",
          "type": "address"
        },
        {
          "indexed": false,
          "internalType": "uint256",
          "name": "token_id",
          "type": "uint256"
        },
        {
          "indexed": false,
          "internalType": "uint256",
          "name": "final_price",
          "type": "uint256"
        }
      ],
      "name": "Auction_closed",
      "type": "event"
    },
    {
      "anonymous": false,
      "inputs": [
        {
          "indexed": false,
          "internalType": "address",
          "name": "sender",
          "type": "address"
        },
        {
          "indexed": false,
          "internalType": "uint256",
          "name": "amount",
          "type": "uint256"
        }
      ],
      "name": "New_bid",
      "type": "event"
    },
    {
      "anonymous": false,
      "inputs": [
        {
          "indexed": false,
          "internalType": "address",
          "name": "sender",
          "type": "address"
        },
        {
          "indexed": false,
          "internalType": "uint256",
          "name": "token_id",
          "type": "uint256"
        }
      ],
      "name": "New_listing",
      "type": "event"
    },
    {
      "anonymous": false,
      "inputs": [
        {
          "indexed": true,
          "internalType": "address",
          "name": "previousOwner",
          "type": "address"
        },
        {
          "indexed": true,
          "internalType": "address",
          "name": "newOwner",
          "type": "address"
        }
      ],
      "name": "OwnershipTransferred",
      "type": "event"
    },
    {
      "anonymous": false,
      "inputs": [
        {
          "indexed": false,
          "internalType": "address",
          "name": "to",
          "type": "address"
        },
        {
          "indexed": false,
          "internalType": "uint256",
          "name": "value",
          "type": "uint256"
        }
      ],
      "name": "Transfer",
      "type": "event"
    },
    {
      "stateMutability": "payable",
      "type": "fallback"
    },
    {
      "inputs": [],
      "name": "owner",
      "outputs": [
        {
          "internalType": "address",
          "name": "",
          "type": "address"
        }
      ],
      "stateMutability": "view",
      "type": "function"
    },
    {
      "inputs": [],
      "name": "renounceOwnership",
      "outputs": [],
      "stateMutability": "nonpayable",
      "type": "function"
    },
    {
      "inputs": [
        {
          "internalType": "address",
          "name": "newOwner",
          "type": "address"
        }
      ],
      "name": "transferOwnership",
      "outputs": [],
      "stateMutability": "nonpayable",
      "type": "function"
    },
    {
      "inputs": [
        {
          "internalType": "uint256",
          "name": "_token_id",
          "type": "uint256"
        },
        {
          "internalType": "uint256",
          "name": "_min_price",
          "type": "uint256"
        },
        {
          "internalType": "uint256",
          "name": "_deadline",
          "type": "uint256"
        }
      ],
      "name": "newAuction",
      "outputs": [],
      "stateMutability": "nonpayable",
      "type": "function"
    },
    {
      "inputs": [
        {
          "internalType": "uint256",
          "name": "_token_id",
          "type": "uint256"
        }
      ],
      "name": "newBid",
      "outputs": [],
      "stateMutability": "payable",
      "type": "function"
    },
    {
      "inputs": [
        {
          "internalType": "uint256",
          "name": "_token_id",
          "type": "uint256"
        }
      ],
      "name": "closeSale",
      "outputs": [],
      "stateMutability": "nonpayable",
      "type": "function"
    },
    {
      "inputs": [
        {
          "internalType": "address",
          "name": "seller",
          "type": "address"
        }
      ],
      "name": "auctionsBySellers",
      "outputs": [
        {
          "internalType": "uint256[]",
          "name": "",
          "type": "uint256[]"
        }
      ],
      "stateMutability": "view",
      "type": "function"
    },
    {
      "inputs": [],
      "name": "allAuctions",
      "outputs": [
        {
          "internalType": "uint256[]",
          "name": "",
          "type": "uint256[]"
        }
      ],
      "stateMutability": "view",
      "type": "function"
    },
    {
      "inputs": [
        {
          "internalType": "uint256",
          "name": "_token_id",
          "type": "uint256"
        }
      ],
      "name": "auctionsDetails",
      "outputs": [
        {
          "components": [
            {
              "internalType": "address",
              "name": "seller",
              "type": "address"
            },
            {
              "internalType": "uint256",
              "name": "min_price",
              "type": "uint256"
            },
            {
              "internalType": "uint256",
              "name": "highest_bid",
              "type": "uint256"
            },
            {
              "internalType": "uint256",
              "name": "deadline",
              "type": "uint256"
            },
            {
              "internalType": "address",
              "name": "highest_bidder",
              "type": "address"
            }
          ],
          "internalType": "struct VOYRMarketplace.auction",
          "name": "",
          "type": "tuple"
        }
      ],
      "stateMutability": "view",
      "type": "function"
    },
    {
      "inputs": [
        {
          "internalType": "uint8",
          "name": "_new_rate",
          "type": "uint8"
        }
      ],
      "name": "setCreatorFeePercent",
      "outputs": [],
      "stateMutability": "nonpayable",
      "type": "function"
    },
    {
      "inputs": [
        {
          "internalType": "address",
          "name": "_operator",
          "type": "address"
        },
        {
          "internalType": "address",
          "name": "_from",
          "type": "address"
        },
        {
          "internalType": "uint256",
          "name": "_tokenId",
          "type": "uint256"
        },
        {
          "internalType": "bytes",
          "name": "_data",
          "type": "bytes"
        }
      ],
      "name": "onERC721Received",
      "outputs": [
        {
          "internalType": "bytes4",
          "name": "",
          "type": "bytes4"
        }
      ],
      "stateMutability": "nonpayable",
      "type": "function"
    }
  ],
  "bytecode": "0x608060405234801561001057600080fd5b5060405161150438038061150483398101604081905261002f916100ba565b60006100396100b6565b600080546001600160a01b0319166001600160a01b0383169081178255604051929350917f8be0079c531659141344cd1fd0a4f28419497f9722a3daafe3b4186f6b6457e0908290a3506001805460ff60a01b196001600160a01b039093166001600160a01b03199091161791909116600160a01b1790556100e8565b3390565b6000602082840312156100cb578081fd5b81516001600160a01b03811681146100e1578182fd5b9392505050565b61140d806100f76000396000f3fe60806040526004361061009c5760003560e01c8063a4223d5311610064578063a4223d5314610152578063c9099e1014610172578063d501f24414610192578063e2543d1c146101bf578063ec4d925b146101d2578063f2fde38b146101f25761009c565b8063150b7a02146100a15780631bbcd4a5146100d7578063290f000a146100f9578063715018a61461011b5780638da5cb5b14610130575b600080fd5b3480156100ad57600080fd5b506100c16100bc366004610e7b565b610212565b6040516100ce91906110a6565b60405180910390f35b3480156100e357600080fd5b506100ec610222565b6040516100ce9190611062565b34801561010557600080fd5b50610119610114366004610f63565b61027a565b005b34801561012757600080fd5b506101196103fa565b34801561013c57600080fd5b50610145610483565b6040516100ce9190610fe8565b34801561015e57600080fd5b5061011961016d366004610f4b565b610492565b34801561017e57600080fd5b506100ec61018d366004610e43565b610849565b34801561019e57600080fd5b506101b26101ad366004610f4b565b6109ba565b6040516100ce91906112c0565b6101196101cd366004610f4b565b610a4c565b3480156101de57600080fd5b506101196101ed366004610f8e565b610b89565b3480156101fe57600080fd5b5061011961020d366004610e43565b610be8565b630a85bd0160e11b949350505050565b6060600380548060200260200160405190810160405280929190818152602001828054801561027057602002820191906000526020600020905b81548152602001906001019080831161025c575b5050505050905090565b600083815260026020526040902060030154156102b25760405162461bcd60e51b81526004016102a9906110bb565b60405180910390fd5b6102ba610da2565b3380825260208083018581526060840185815260008881526002938490526040808220875181546001600160a01b03199081166001600160a01b039283161783559551600180840191909155838a01519783019790975593516003808301919091556080890151600492830180549097169086161790955584548087018655949092527fc2575a0e9e593c00f959f8c92f12db2869c3395a3b0502d05e2516446f71f85b90930189905592549151632142170760e11b81529116926342842e0e926103899230918a9101610ffc565b600060405180830381600087803b1580156103a357600080fd5b505af11580156103b7573d6000803e3d6000fd5b505050507fa0e23e07b279cf0260ae22b5ed8f301dd8ca1dc1c0c75f08a31a6db66ed18e8233856040516103ec929190611049565b60405180910390a150505050565b610402610ca8565b6001600160a01b0316610413610483565b6001600160a01b0316146104395760405162461bcd60e51b81526004016102a9906111f3565b600080546040516001600160a01b03909116907f8be0079c531659141344cd1fd0a4f28419497f9722a3daafe3b4186f6b6457e0908390a3600080546001600160a01b0319169055565b6000546001600160a01b031690565b600081815260026020818152604092839020835160a08101855281546001600160a01b0390811682526001830154938201939093529281015493830193909352600383015460608301819052600490930154166080820152906105075760405162461bcd60e51b81526004016102a990611185565b428160600151111561052b5760405162461bcd60e51b81526004016102a990611156565b600154604051630a216a2b60e31b81526000916001600160a01b03169063510b51589061055c908690600401611301565b60206040518083038186803b15801561057457600080fd5b505afa158015610588573d6000803e3d6000fd5b505050506040513d601f19601f820116820180604052508101906105ac9190610e5f565b60015460408401519192506000916105da916064916105d491600160a01b900460ff16610cac565b90610cbf565b600085815260026020818152604080842080546001600160a01b0319908116825560018201869055938101859055600380820186905560049091018054909416909355825481518184028101840190925280825294955092939083018282801561066357602002820191906000526020600020905b81548152602001906001019080831161064f575b5050505050905060005b815181101561071d578582828151811061069757634e487b7160e01b600052603260045260246000fd5b6020026020010151141561070b5781600183516106b49190611361565b815181106106d257634e487b7160e01b600052603260045260246000fd5b60200260200101518282815181106106fa57634e487b7160e01b600052603260045260246000fd5b60200260200101818152505061071d565b8061071581611378565b91505061066d565b508051610731906003906020840190610de3565b50600380548061075157634e487b7160e01b600052603160045260246000fd5b6000828152602081208201600019908101919091550190556001546080850151604051632142170760e11b81526001600160a01b03909216916342842e0e916107a1913091908a90600401610ffc565b600060405180830381600087803b1580156107bb57600080fd5b505af11580156107cf573d6000803e3d6000fd5b5050855160408701516107ef93509091506107ea9085610ccb565b610cd7565b6107f98383610cd7565b7f04ba47c6947d60eb03de16729d5d359ce5e735d3e525fcb852dce92171c443928460000151856080015187876040015160405161083a9493929190611020565b60405180910390a15050505050565b604080516000808252602082019092526060915b6003548110156109b3576000818152600260205260409020546001600160a01b03163314156109a157600082516001610896919061130a565b67ffffffffffffffff8111156108bc57634e487b7160e01b600052604160045260246000fd5b6040519080825280602002602001820160405280156108e5578160200160208202803683370190505b50905060005b83516108f890600161130a565b8110156109645783818151811061091f57634e487b7160e01b600052603260045260246000fd5b602002602001015182828151811061094757634e487b7160e01b600052603260045260246000fd5b60209081029190910101528061095c81611378565b9150506108eb565b508181600183516109759190611361565b8151811061099357634e487b7160e01b600052603260045260246000fd5b602090810291909101015291505b806109ab81611378565b91505061085d565b5092915050565b6109c2610da2565b6000828152600260205260409020600101546109f05760405162461bcd60e51b81526004016102a99061112a565b50600090815260026020818152604092839020835160a08101855281546001600160a01b039081168252600183015493820193909352928101549383019390935260038301546060830152600490920154909116608082015290565b600081815260026020818152604092839020835160a08101855281546001600160a01b039081168252600183015493820193909352928101549383019390935260038301546060830181905260049093015416608082015290610ac15760405162461bcd60e51b81526004016102a9906111bc565b348160200151108015610ad75750348160400151105b610af35760405162461bcd60e51b81526004016102a99061126b565b4281606001511015610b175760405162461bcd60e51b81526004016102a990611297565b60808101516040808301516000858152600260208190529290203492810192909255600490910180546001600160a01b03191633179055610b588282610cd7565b7f4fdb30905948940a7df4cbb2ec62f594a41923a48a397ace9a9c2f96c4e22c3633346040516103ec929190611049565b610b91610ca8565b6001600160a01b0316610ba2610483565b6001600160a01b031614610bc85760405162461bcd60e51b81526004016102a9906111f3565b6001805460ff909216600160a01b0260ff60a01b19909216919091179055565b610bf0610ca8565b6001600160a01b0316610c01610483565b6001600160a01b031614610c275760405162461bcd60e51b81526004016102a9906111f3565b6001600160a01b038116610c4d5760405162461bcd60e51b81526004016102a9906110e4565b600080546040516001600160a01b03808516939216917f8be0079c531659141344cd1fd0a4f28419497f9722a3daafe3b4186f6b6457e091a3600080546001600160a01b0319166001600160a01b0392909216919091179055565b3390565b6000610cb88284611342565b9392505050565b6000610cb88284611322565b6000610cb88284611361565b604080516000808252602082019092526001600160a01b038416908390604051610d019190610faf565b60006040518083038185875af1925050503d8060008114610d3e576040519150601f19603f3d011682016040523d82523d6000602084013e610d43565b606091505b5050905080610d645760405162461bcd60e51b81526004016102a990611228565b7f69ca02dd4edd7bf0a4abb9ed3b7af3f14778db5d61921c7dc7cd545266326de28383604051610d95929190611049565b60405180910390a1505050565b6040518060a0016040528060006001600160a01b0316815260200160008152602001600081526020016000815260200160006001600160a01b031681525090565b828054828255906000526020600020908101928215610e1e579160200282015b82811115610e1e578251825591602001919060010190610e03565b50610e2a929150610e2e565b5090565b5b80821115610e2a5760008155600101610e2f565b600060208284031215610e54578081fd5b8135610cb8816113bf565b600060208284031215610e70578081fd5b8151610cb8816113bf565b60008060008060808587031215610e90578283fd5b8435610e9b816113bf565b9350602085810135610eac816113bf565b935060408601359250606086013567ffffffffffffffff80821115610ecf578384fd5b818801915088601f830112610ee2578384fd5b813581811115610ef457610ef46113a9565b604051601f8201601f1916810185018381118282101715610f1757610f176113a9565b60405281815283820185018b1015610f2d578586fd5b81858501868301379081019093019390935250939692955090935050565b600060208284031215610f5c578081fd5b5035919050565b600080600060608486031215610f77578283fd5b505081359360208301359350604090920135919050565b600060208284031215610f9f578081fd5b813560ff81168114610cb8578182fd5b60008251815b81811015610fcf5760208186018101518583015201610fb5565b81811115610fdd5782828501525b509190910192915050565b6001600160a01b0391909116815260200190565b6001600160a01b039384168152919092166020820152604081019190915260600190565b6001600160a01b0394851681529290931660208301526040820152606081019190915260800190565b6001600160a01b03929092168252602082015260400190565b6020808252825182820181905260009190848201906040850190845b8181101561109a5783518352928401929184019160010161107e565b50909695505050505050565b6001600160e01b031991909116815260200190565b6020808252600f908201526e27b733b7b4b7339030bab1ba34b7b760891b604082015260600190565b60208082526026908201527f4f776e61626c653a206e6577206f776e657220697320746865207a65726f206160408201526564647265737360d01b606082015260800190565b60208082526012908201527127379031bab93932b73a1030bab1ba34b7b760711b604082015260600190565b60208082526015908201527461756374696f6e207374696c6c2072756e6e696e6760581b604082015260600190565b60208082526018908201527f6e6f20636f72726573706f6e64696e672061756374696f6e0000000000000000604082015260600190565b60208082526018908201527f4e6f20636f72726573706f6e64696e672061756374696f6e0000000000000000604082015260600190565b6020808252818101527f4f776e61626c653a2063616c6c6572206973206e6f7420746865206f776e6572604082015260600190565b60208082526023908201527f5472616e7366657248656c7065723a204554485f5452414e534645525f46414960408201526213115160ea1b606082015260800190565b6020808252601290820152711c1b1858d94818481a1a59da195c88189a5960721b604082015260600190565b6020808252600f908201526e185d58dd1a5bdb88195e1c1a5c9959608a1b604082015260600190565b81516001600160a01b039081168252602080840151908301526040808401519083015260608084015190830152608092830151169181019190915260a00190565b90815260200190565b6000821982111561131d5761131d611393565b500190565b60008261133d57634e487b7160e01b81526012600452602481fd5b500490565b600081600019048311821515161561135c5761135c611393565b500290565b60008282101561137357611373611393565b500390565b600060001982141561138c5761138c611393565b5060010190565b634e487b7160e01b600052601160045260246000fd5b634e487b7160e01b600052604160045260246000fd5b6001600160a01b03811681146113d457600080fd5b5056fea264697066735822122049379061011c7c759ef18fd3f613a3f60be8451d326b18444d90514bddde4b2164736f6c63430008000033",
  "immutableReferences": {},
  "source": "// SPDX-License-Identifier: MIT\n\npragma solidity ^0.8.0;\n\n\nimport \"@openzeppelin/contracts/access/Ownable.sol\";\nimport \"@openzeppelin/contracts/utils/math/SafeMath.sol\";\n//import \"@openzeppelin/contracts/token/ERC721/extensions/IERC721Enumerable.sol\"; //implem by default in ERC721 - yeh, weird\nimport \"@openzeppelin/contracts/token/ERC721/IERC721Receiver.sol\";\nimport \"./Memories_factory.sol\";\n\n\n\n\ncontract VOYRMarketplace is Ownable, IERC721Receiver {\n\n      using SafeMath for uint256;\n      VOYRMemories VOYR_Memories;\n\n      event New_listing(address sender, uint256 token_id);\n      event New_bid(address sender, uint256 amount);\n      event Auction_closed(address seller, address buyer, uint256 token_id, uint256 final_price);\n      event Transfer(address to, uint256 value);\n\n      uint8 creator_fee;\n\n      struct auction {\n        address seller;\n        uint256 min_price;\n        uint256 highest_bid;\n        uint256 deadline;\n        address highest_bidder;\n      }\n\n      mapping(uint256 => auction) private current_auctions; //token_id -> Auction\n      uint256[] private listed_tokens;\n\n      //@dev will only support VOYR_Memories NFTs -> this can be upgraded in future\n      //release if needed\n      constructor(address VOYR_Memories_address) {\n          VOYR_Memories = VOYRMemories(VOYR_Memories_address);\n          creator_fee = 1; //in %\n      }\n\n      //@dev front-end will have to check isApprovedForAll(sender, marketplace address)\n      //and setApprovalForAll(marketplace_addres, true)\n      function newAuction(uint256 _token_id, uint256 _min_price, uint256 _deadline) external {\n        require(current_auctions[_token_id].deadline == 0, \"Ongoing auction\");\n        auction memory current_new;\n        current_new.seller = msg.sender;\n        current_new.min_price = _min_price;\n        current_new.deadline = _deadline;\n\n        current_auctions[_token_id] = current_new;\n        listed_tokens.push(_token_id);\n\n        VOYR_Memories.safeTransferFrom(msg.sender, address(this), _token_id);\n        emit New_listing(msg.sender, _token_id);\n      }\n\n\n      function newBid(uint256 _token_id) external payable {\n        auction memory _current = current_auctions[_token_id];\n        require(_current.deadline != 0, \"No corresponding auction\");\n        require(_current.min_price < msg.value && _current.highest_bid < msg.value, \"place a higher bid\");\n        require(_current.deadline >= block.timestamp, \"auction expired\");\n\n        address prev_bidder = _current.highest_bidder;\n        uint256 prev_bid = _current.highest_bid;\n\n        current_auctions[_token_id].highest_bid = msg.value;\n        current_auctions[_token_id].highest_bidder = msg.sender;\n\n        safeTransfer(prev_bidder, prev_bid);\n        emit New_bid(msg.sender, msg.value);\n      }\n\n\n      function closeSale(uint256 _token_id) external {\n        auction memory _current = current_auctions[_token_id];\n        require(_current.deadline != 0, \"no corresponding auction\");\n        require(_current.deadline <= block.timestamp, \"auction still running\");\n\n        address _creator = VOYR_Memories.creator(_token_id);\n        uint256 _creator_fee = _current.highest_bid.mul(creator_fee).div(100);\n\n        delete current_auctions[_token_id];\n\n        uint256[] memory _listed_tokens = listed_tokens;\n        for (uint i=0; i<_listed_tokens.length; i++) { //O(n) :(\n            if (_listed_tokens[i] == _token_id) {\n                _listed_tokens[i] = _listed_tokens[_listed_tokens.length-1];\n                break;\n            }\n        }\n        listed_tokens = _listed_tokens;\n        listed_tokens.pop();\n\n        VOYR_Memories.safeTransferFrom(address(this), _current.highest_bidder, _token_id);\n        safeTransfer(_current.seller, _current.highest_bid.sub(_creator_fee));\n        safeTransfer(_creator, _creator_fee);\n\n        emit Auction_closed(_current.seller, _current.highest_bidder, _token_id, _current.highest_bid);\n      }\n\n\n      function auctionsBySellers(address seller) external view returns(uint256[] memory){\n        uint256[] memory auctions_by_seller = new uint256[](0);\n\n        for(uint256 i = 0; i<listed_tokens.length; i++) {\n            if(current_auctions[i].seller == msg.sender) {\n              uint256[] memory tmp = new uint256[](auctions_by_seller.length+1);\n\n              for(uint j = 0; j<auctions_by_seller.length+1; j++) {\n                tmp[j] = auctions_by_seller[j];\n              }\n\n              tmp[tmp.length - 1] = i;\n              auctions_by_seller = tmp;\n            }\n        }\n        return auctions_by_seller;\n      }\n\n\n      function allAuctions() external view returns(uint256[] memory) {\n        return listed_tokens;\n      }\n\n      function auctionsDetails(uint256 _token_id) external view returns(auction memory) {\n        require(current_auctions[_token_id].min_price != 0, \"No current auction\");\n        return current_auctions[_token_id];\n      }\n\n      function setCreatorFeePercent(uint8 _new_rate) external onlyOwner {\n        creator_fee = _new_rate;\n      }\n\n      fallback () external payable {  //fallback. Why are you so generous anyway?\n         revert ();\n      }\n\n      function onERC721Received(address _operator, address _from, uint256 _tokenId, bytes memory _data) public override returns(bytes4) {\n        return 0x150b7a02;\n      }\n\n       //@dev taken from uniswapV2 TransferHelper lib\n       function safeTransfer(address to, uint value) internal {\n           (bool success,) = to.call{value:value}(new bytes(0));\n           require(success, 'TransferHelper: ETH_TRANSFER_FAILED');\n           emit Transfer(to, value);\n       }\n\n}\n",
  "sourcePath": "/home/drgorilla/Documents/solidity/voyr_repoS/VOYR_Memories/contracts/VOYR_MemoriesMarket.sol",
  "compiler": {
    "name": "solc",
    "version": "0.8.0+commit.c7dfd78e.Emscripten.clang"
  },
  "schemaVersion": "3.4.0",
  "updatedAt": "2021-06-17T15:48:08.798Z",
  "devdoc": {
    "kind": "dev",
    "methods": {
      "owner()": {
        "details": "Returns the address of the current owner."
      },
      "renounceOwnership()": {
        "details": "Leaves the contract without owner. It will not be possible to call `onlyOwner` functions anymore. Can only be called by the current owner. NOTE: Renouncing ownership will leave the contract without an owner, thereby removing any functionality that is only available to the owner."
      },
      "transferOwnership(address)": {
        "details": "Transfers ownership of the contract to a new account (`newOwner`). Can only be called by the current owner."
      }
    },
    "version": 1
  },
  "userdoc": {
    "kind": "user",
    "methods": {},
    "version": 1
  }
}