{
  "contractName": "VOYRMemories",
  "abi": [
    {
      "inputs": [],
      "stateMutability": "nonpayable",
      "type": "constructor"
    },
    {
      "anonymous": false,
      "inputs": [
        {
          "indexed": true,
          "internalType": "address",
          "name": "owner",
          "type": "address"
        },
        {
          "indexed": true,
          "internalType": "address",
          "name": "approved",
          "type": "address"
        },
        {
          "indexed": true,
          "internalType": "uint256",
          "name": "tokenId",
          "type": "uint256"
        }
      ],
      "name": "Approval",
      "type": "event"
    },
    {
      "anonymous": false,
      "inputs": [
        {
          "indexed": true,
          "internalType": "address",
          "name": "owner",
          "type": "address"
        },
        {
          "indexed": true,
          "internalType": "address",
          "name": "operator",
          "type": "address"
        },
        {
          "indexed": false,
          "internalType": "bool",
          "name": "approved",
          "type": "bool"
        }
      ],
      "name": "ApprovalForAll",
      "type": "event"
    },
    {
      "anonymous": false,
      "inputs": [
        {
          "indexed": true,
          "internalType": "address",
          "name": "previousOwner",
          "type": "address"
        },
        {
          "indexed": true,
          "internalType": "address",
          "name": "newOwner",
          "type": "address"
        }
      ],
      "name": "OwnershipTransferred",
      "type": "event"
    },
    {
      "anonymous": false,
      "inputs": [
        {
          "indexed": true,
          "internalType": "address",
          "name": "from",
          "type": "address"
        },
        {
          "indexed": true,
          "internalType": "address",
          "name": "to",
          "type": "address"
        },
        {
          "indexed": true,
          "internalType": "uint256",
          "name": "tokenId",
          "type": "uint256"
        }
      ],
      "name": "Transfer",
      "type": "event"
    },
    {
      "inputs": [],
      "name": "_base_uri",
      "outputs": [
        {
          "internalType": "string",
          "name": "",
          "type": "string"
        }
      ],
      "stateMutability": "view",
      "type": "function",
      "constant": true
    },
    {
      "inputs": [
        {
          "internalType": "address",
          "name": "to",
          "type": "address"
        },
        {
          "internalType": "uint256",
          "name": "tokenId",
          "type": "uint256"
        }
      ],
      "name": "approve",
      "outputs": [],
      "stateMutability": "nonpayable",
      "type": "function"
    },
    {
      "inputs": [
        {
          "internalType": "address",
          "name": "owner",
          "type": "address"
        }
      ],
      "name": "balanceOf",
      "outputs": [
        {
          "internalType": "uint256",
          "name": "",
          "type": "uint256"
        }
      ],
      "stateMutability": "view",
      "type": "function",
      "constant": true
    },
    {
      "inputs": [],
      "name": "contract_URI_shop",
      "outputs": [
        {
          "internalType": "string",
          "name": "",
          "type": "string"
        }
      ],
      "stateMutability": "view",
      "type": "function",
      "constant": true
    },
    {
      "inputs": [
        {
          "internalType": "uint256",
          "name": "tokenId",
          "type": "uint256"
        }
      ],
      "name": "getApproved",
      "outputs": [
        {
          "internalType": "address",
          "name": "",
          "type": "address"
        }
      ],
      "stateMutability": "view",
      "type": "function",
      "constant": true
    },
    {
      "inputs": [
        {
          "internalType": "address",
          "name": "owner",
          "type": "address"
        },
        {
          "internalType": "address",
          "name": "operator",
          "type": "address"
        }
      ],
      "name": "isApprovedForAll",
      "outputs": [
        {
          "internalType": "bool",
          "name": "",
          "type": "bool"
        }
      ],
      "stateMutability": "view",
      "type": "function",
      "constant": true
    },
    {
      "inputs": [],
      "name": "name",
      "outputs": [
        {
          "internalType": "string",
          "name": "",
          "type": "string"
        }
      ],
      "stateMutability": "view",
      "type": "function",
      "constant": true
    },
    {
      "inputs": [],
      "name": "owner",
      "outputs": [
        {
          "internalType": "address",
          "name": "",
          "type": "address"
        }
      ],
      "stateMutability": "view",
      "type": "function",
      "constant": true
    },
    {
      "inputs": [
        {
          "internalType": "uint256",
          "name": "tokenId",
          "type": "uint256"
        }
      ],
      "name": "ownerOf",
      "outputs": [
        {
          "internalType": "address",
          "name": "",
          "type": "address"
        }
      ],
      "stateMutability": "view",
      "type": "function",
      "constant": true
    },
    {
      "inputs": [],
      "name": "renounceOwnership",
      "outputs": [],
      "stateMutability": "nonpayable",
      "type": "function"
    },
    {
      "inputs": [
        {
          "internalType": "address",
          "name": "from",
          "type": "address"
        },
        {
          "internalType": "address",
          "name": "to",
          "type": "address"
        },
        {
          "internalType": "uint256",
          "name": "tokenId",
          "type": "uint256"
        }
      ],
      "name": "safeTransferFrom",
      "outputs": [],
      "stateMutability": "nonpayable",
      "type": "function"
    },
    {
      "inputs": [
        {
          "internalType": "address",
          "name": "from",
          "type": "address"
        },
        {
          "internalType": "address",
          "name": "to",
          "type": "address"
        },
        {
          "internalType": "uint256",
          "name": "tokenId",
          "type": "uint256"
        },
        {
          "internalType": "bytes",
          "name": "_data",
          "type": "bytes"
        }
      ],
      "name": "safeTransferFrom",
      "outputs": [],
      "stateMutability": "nonpayable",
      "type": "function"
    },
    {
      "inputs": [
        {
          "internalType": "address",
          "name": "operator",
          "type": "address"
        },
        {
          "internalType": "bool",
          "name": "approved",
          "type": "bool"
        }
      ],
      "name": "setApprovalForAll",
      "outputs": [],
      "stateMutability": "nonpayable",
      "type": "function"
    },
    {
      "inputs": [
        {
          "internalType": "bytes4",
          "name": "interfaceId",
          "type": "bytes4"
        }
      ],
      "name": "supportsInterface",
      "outputs": [
        {
          "internalType": "bool",
          "name": "",
          "type": "bool"
        }
      ],
      "stateMutability": "view",
      "type": "function",
      "constant": true
    },
    {
      "inputs": [],
      "name": "symbol",
      "outputs": [
        {
          "internalType": "string",
          "name": "",
          "type": "string"
        }
      ],
      "stateMutability": "view",
      "type": "function",
      "constant": true
    },
    {
      "inputs": [
        {
          "internalType": "uint256",
          "name": "index",
          "type": "uint256"
        }
      ],
      "name": "tokenByIndex",
      "outputs": [
        {
          "internalType": "uint256",
          "name": "",
          "type": "uint256"
        }
      ],
      "stateMutability": "view",
      "type": "function",
      "constant": true
    },
    {
      "inputs": [
        {
          "internalType": "address",
          "name": "owner",
          "type": "address"
        },
        {
          "internalType": "uint256",
          "name": "index",
          "type": "uint256"
        }
      ],
      "name": "tokenOfOwnerByIndex",
      "outputs": [
        {
          "internalType": "uint256",
          "name": "",
          "type": "uint256"
        }
      ],
      "stateMutability": "view",
      "type": "function",
      "constant": true
    },
    {
      "inputs": [],
      "name": "totalSupply",
      "outputs": [
        {
          "internalType": "uint256",
          "name": "",
          "type": "uint256"
        }
      ],
      "stateMutability": "view",
      "type": "function",
      "constant": true
    },
    {
      "inputs": [
        {
          "internalType": "address",
          "name": "from",
          "type": "address"
        },
        {
          "internalType": "address",
          "name": "to",
          "type": "address"
        },
        {
          "internalType": "uint256",
          "name": "tokenId",
          "type": "uint256"
        }
      ],
      "name": "transferFrom",
      "outputs": [],
      "stateMutability": "nonpayable",
      "type": "function"
    },
    {
      "inputs": [
        {
          "internalType": "address",
          "name": "newOwner",
          "type": "address"
        }
      ],
      "name": "transferOwnership",
      "outputs": [],
      "stateMutability": "nonpayable",
      "type": "function"
    },
    {
      "inputs": [
        {
          "internalType": "address",
          "name": "receiver",
          "type": "address"
        },
        {
          "internalType": "string",
          "name": "new_URI",
          "type": "string"
        },
        {
          "internalType": "uint256",
          "name": "creator_fee",
          "type": "uint256"
        }
      ],
      "name": "mintNFT",
      "outputs": [
        {
          "internalType": "uint256",
          "name": "",
          "type": "uint256"
        }
      ],
      "stateMutability": "nonpayable",
      "type": "function"
    },
    {
      "inputs": [
        {
          "internalType": "uint256",
          "name": "token_id",
          "type": "uint256"
        }
      ],
      "name": "tokenURI",
      "outputs": [
        {
          "internalType": "string",
          "name": "",
          "type": "string"
        }
      ],
      "stateMutability": "view",
      "type": "function",
      "constant": true
    },
    {
      "inputs": [
        {
          "internalType": "uint256",
          "name": "token_id",
          "type": "uint256"
        }
      ],
      "name": "creator",
      "outputs": [
        {
          "internalType": "address",
          "name": "",
          "type": "address"
        }
      ],
      "stateMutability": "view",
      "type": "function",
      "constant": true
    },
    {
      "inputs": [
        {
          "internalType": "string",
          "name": "new_base",
          "type": "string"
        }
      ],
      "name": "setBaseURI",
      "outputs": [],
      "stateMutability": "nonpayable",
      "type": "function"
    },
    {
      "inputs": [
        {
          "internalType": "string",
          "name": "new_contract_uri",
          "type": "string"
        }
      ],
      "name": "setContractUriShop",
      "outputs": [],
      "stateMutability": "nonpayable",
      "type": "function"
    },
    {
      "inputs": [],
      "name": "contractURI",
      "outputs": [
        {
          "internalType": "string",
          "name": "",
          "type": "string"
        }
      ],
      "stateMutability": "view",
      "type": "function",
      "constant": true
    },
    {
      "inputs": [
        {
          "internalType": "uint256",
          "name": "token_id",
          "type": "uint256"
        }
      ],
      "name": "creatorFee",
      "outputs": [
        {
          "internalType": "uint256",
          "name": "",
          "type": "uint256"
        }
      ],
      "stateMutability": "view",
      "type": "function",
      "constant": true
    },
    {
      "inputs": [],
      "name": "withdraw",
      "outputs": [],
      "stateMutability": "nonpayable",
      "type": "function"
    }
  ],
  "bytecode": "0x60806040523480156200001157600080fd5b50604080518082018252600c81526b564f59524d656d6f7269657360a01b602080830191825283518085019094526005845264564d454d4f60d81b908401528151919291620000639160009162000128565b5080516200007990600190602084019062000128565b50505060006200008e6200012460201b60201c565b600a80546001600160a01b0319166001600160a01b038316908117909155604051919250906000907f8be0079c531659141344cd1fd0a4f28419497f9722a3daafe3b4186f6b6457e0908290a350604080516020810191829052600090819052620000fc91600f9162000128565b506040805160208101918290526000908190526200011d9160109162000128565b506200020b565b3390565b8280546200013690620001ce565b90600052602060002090601f0160209004810192826200015a5760008555620001a5565b82601f106200017557805160ff1916838001178555620001a5565b82800160010185558215620001a5579182015b82811115620001a557825182559160200191906001019062000188565b50620001b3929150620001b7565b5090565b5b80821115620001b35760008155600101620001b8565b600281046001821680620001e357607f821691505b602082108114156200020557634e487b7160e01b600052602260045260246000fd5b50919050565b611f44806200021b6000396000f3fe608060405234801561001057600080fd5b50600436106101c45760003560e01c80636352211e116100f9578063a22cb46511610097578063e5aca89411610071578063e5aca89414610378578063e8a3d4851461038b578063e985e9c514610393578063f2fde38b146103a6576101c4565b8063a22cb4651461033f578063b88d4fde14610352578063c87b56dd14610365576101c4565b806378c3829b116100d357806378c3829b1461031457806380499c22146103275780638da5cb5b1461032f57806395d89b4114610337576101c4565b80636352211e146102e657806370a08231146102f9578063715018a61461030c576101c4565b80632f745c59116101665780634f6ccce7116101405780634f6ccce7146102a5578063510b5158146102b857806355f804b3146102cb5780635dd59b7d146102de576101c4565b80632f745c59146102775780633ccfd60b1461028a57806342842e0e14610292576101c4565b806308598df0116101a257806308598df014610227578063095ea7b31461024757806318160ddd1461025c57806323b872dd14610264576101c4565b806301ffc9a7146101c957806306fdde03146101f2578063081812fc14610207575b600080fd5b6101dc6101d7366004611725565b6103b9565b6040516101e991906118f1565b60405180910390f35b6101fa6103e6565b6040516101e991906118fc565b61021a610215366004611790565b610478565b6040516101e991906118a0565b61023a6102353660046116a7565b6104c4565b6040516101e99190611e4a565b61025a6102553660046116fc565b610530565b005b61023a6105c8565b61025a6102723660046115b9565b6105ce565b61023a6102853660046116fc565b610606565b61025a610658565b61025a6102a03660046115b9565b6106ca565b61023a6102b3366004611790565b6106e5565b61021a6102c6366004611790565b610740565b61025a6102d936600461175d565b610783565b6101fa6107d5565b61021a6102f4366004611790565b610863565b61023a61030736600461156d565b610898565b61025a6108dc565b61023a610322366004611790565b610965565b6101fa61099f565b61021a6109ac565b6101fa6109bb565b61025a61034d36600461166d565b6109ca565b61025a6103603660046115f4565b610a98565b6101fa610373366004611790565b610ad7565b61025a61038636600461175d565b610b3a565b6101fa610b8c565b6101dc6103a1366004611587565b610b9b565b61025a6103b436600461156d565b610bc9565b60006001600160e01b0319821663780e9d6360e01b14806103de57506103de82610c8a565b90505b919050565b6060600080546103f590611e8e565b80601f016020809104026020016040519081016040528092919081815260200182805461042190611e8e565b801561046e5780601f106104435761010080835404028352916020019161046e565b820191906000526020600020905b81548152906001019060200180831161045157829003601f168201915b5050505050905090565b600061048382610cca565b6104a85760405162461bcd60e51b815260040161049f90611c56565b60405180910390fd5b506000908152600460205260409020546001600160a01b031690565b60006104d0600b610ce7565b60006104dc600b610cf0565b90506104e88582610cf4565b6104f28185610dd3565b6000818152600d6020526040902080546001600160a01b031916331790558215610528576000818152600e602052604090208390555b949350505050565b600061053b82610863565b9050806001600160a01b0316836001600160a01b0316141561056f5760405162461bcd60e51b815260040161049f90611d6c565b806001600160a01b0316610581610e17565b6001600160a01b0316148061059d575061059d816103a1610e17565b6105b95760405162461bcd60e51b815260040161049f90611af0565b6105c38383610e1b565b505050565b60085490565b6105df6105d9610e17565b82610e89565b6105fb5760405162461bcd60e51b815260040161049f90611dad565b6105c3838383610f06565b600061061183610898565b821061062f5760405162461bcd60e51b815260040161049f9061190f565b506001600160a01b03919091166000908152600660209081526040808320938352929052205490565b610660610e17565b6001600160a01b03166106716109ac565b6001600160a01b0316146106975760405162461bcd60e51b815260040161049f90611cee565b6040514790339082156108fc029083906000818181858888f193505050501580156106c6573d6000803e3d6000fd5b5050565b6105c383838360405180602001604052806000815250610a98565b60006106ef6105c8565b821061070d5760405162461bcd60e51b815260040161049f90611dfe565b6008828154811061072e57634e487b7160e01b600052603260045260246000fd5b90600052602060002001549050919050565b600061074b82610cca565b6107675760405162461bcd60e51b815260040161049f90611b4d565b506000908152600d60205260409020546001600160a01b031690565b61078b610e17565b6001600160a01b031661079c6109ac565b6001600160a01b0316146107c25760405162461bcd60e51b815260040161049f90611cee565b80516106c6906010906020840190611427565b600f80546107e290611e8e565b80601f016020809104026020016040519081016040528092919081815260200182805461080e90611e8e565b801561085b5780601f106108305761010080835404028352916020019161085b565b820191906000526020600020905b81548152906001019060200180831161083e57829003601f168201915b505050505081565b6000818152600260205260408120546001600160a01b0316806103de5760405162461bcd60e51b815260040161049f90611bd8565b60006001600160a01b0382166108c05760405162461bcd60e51b815260040161049f90611b8e565b506001600160a01b031660009081526003602052604090205490565b6108e4610e17565b6001600160a01b03166108f56109ac565b6001600160a01b03161461091b5760405162461bcd60e51b815260040161049f90611cee565b600a546040516000916001600160a01b0316907f8be0079c531659141344cd1fd0a4f28419497f9722a3daafe3b4186f6b6457e0908390a3600a80546001600160a01b0319169055565b600061097082610cca565b61098c5760405162461bcd60e51b815260040161049f90611b4d565b506000908152600e602052604090205490565b601080546107e290611e8e565b600a546001600160a01b031690565b6060600180546103f590611e8e565b6109d2610e17565b6001600160a01b0316826001600160a01b03161415610a035760405162461bcd60e51b815260040161049f90611a6d565b8060056000610a10610e17565b6001600160a01b03908116825260208083019390935260409182016000908120918716808252919093529120805460ff191692151592909217909155610a54610e17565b6001600160a01b03167f17307eab39ab6107e8899845ad3d59bd9653f200f220920489ca2b5937696c3183604051610a8c91906118f1565b60405180910390a35050565b610aa9610aa3610e17565b83610e89565b610ac55760405162461bcd60e51b815260040161049f90611dad565b610ad184848484611033565b50505050565b6060610ae282610cca565b610afe5760405162461bcd60e51b815260040161049f90611b4d565b6010600c6000848152602001908152602001600020604051602001610b2492919061188b565b6040516020818303038152906040529050919050565b610b42610e17565b6001600160a01b0316610b536109ac565b6001600160a01b031614610b795760405162461bcd60e51b815260040161049f90611cee565b80516106c690600f906020840190611427565b6060600f80546103f590611e8e565b6001600160a01b03918216600090815260056020908152604080832093909416825291909152205460ff1690565b610bd1610e17565b6001600160a01b0316610be26109ac565b6001600160a01b031614610c085760405162461bcd60e51b815260040161049f90611cee565b6001600160a01b038116610c2e5760405162461bcd60e51b815260040161049f906119ac565b600a546040516001600160a01b038084169216907f8be0079c531659141344cd1fd0a4f28419497f9722a3daafe3b4186f6b6457e090600090a3600a80546001600160a01b0319166001600160a01b0392909216919091179055565b60006001600160e01b031982166380ac58cd60e01b1480610cbb57506001600160e01b03198216635b5e139f60e01b145b806103de57506103de82611066565b6000908152600260205260409020546001600160a01b0316151590565b80546001019055565b5490565b6001600160a01b038216610d1a5760405162461bcd60e51b815260040161049f90611c21565b610d2381610cca565b15610d405760405162461bcd60e51b815260040161049f906119f2565b610d4c6000838361107f565b6001600160a01b0382166000908152600360205260408120805460019290610d75908490611e5f565b909155505060008181526002602052604080822080546001600160a01b0319166001600160a01b03861690811790915590518392907fddf252ad1be2c89b69c2b068fc378daa952ba7f163c4a11628f55a4df523b3ef908290a45050565b610ddc82610cca565b610df85760405162461bcd60e51b815260040161049f90611ca2565b6000828152600c6020908152604090912082516105c392840190611427565b3390565b600081815260046020526040902080546001600160a01b0319166001600160a01b0384169081179091558190610e5082610863565b6001600160a01b03167f8c5be1e5ebec7d5bd14f71427d1e84f3dd0314c0f7b2291e5b200ac8c7c3b92560405160405180910390a45050565b6000610e9482610cca565b610eb05760405162461bcd60e51b815260040161049f90611aa4565b6000610ebb83610863565b9050806001600160a01b0316846001600160a01b03161480610ef65750836001600160a01b0316610eeb84610478565b6001600160a01b0316145b8061052857506105288185610b9b565b826001600160a01b0316610f1982610863565b6001600160a01b031614610f3f5760405162461bcd60e51b815260040161049f90611d23565b6001600160a01b038216610f655760405162461bcd60e51b815260040161049f90611a29565b610f7083838361107f565b610f7b600082610e1b565b6001600160a01b0383166000908152600360205260408120805460019290610fa4908490611e77565b90915550506001600160a01b0382166000908152600360205260408120805460019290610fd2908490611e5f565b909155505060008181526002602052604080822080546001600160a01b0319166001600160a01b0386811691821790925591518493918716917fddf252ad1be2c89b69c2b068fc378daa952ba7f163c4a11628f55a4df523b3ef91a4505050565b61103e848484610f06565b61104a84848484611108565b610ad15760405162461bcd60e51b815260040161049f9061195a565b6001600160e01b031981166301ffc9a760e01b14919050565b61108a8383836105c3565b6001600160a01b0383166110a6576110a181611223565b6110c9565b816001600160a01b0316836001600160a01b0316146110c9576110c98382611267565b6001600160a01b0382166110e5576110e081611304565b6105c3565b826001600160a01b0316826001600160a01b0316146105c3576105c382826113dd565b600061111c846001600160a01b0316611421565b1561121857836001600160a01b031663150b7a02611138610e17565b8786866040518563ffffffff1660e01b815260040161115a94939291906118b4565b602060405180830381600087803b15801561117457600080fd5b505af19250505080156111a4575060408051601f3d908101601f191682019092526111a191810190611741565b60015b6111fe573d8080156111d2576040519150601f19603f3d011682016040523d82523d6000602084013e6111d7565b606091505b5080516111f65760405162461bcd60e51b815260040161049f9061195a565b805181602001fd5b6001600160e01b031916630a85bd0160e11b149050610528565b506001949350505050565b600880546000838152600960205260408120829055600182018355919091527ff3f7a9fe364faab93b216da50a3214154f22a0a2b415b23a84c8169e8b636ee30155565b6000600161127484610898565b61127e9190611e77565b6000838152600760205260409020549091508082146112d1576001600160a01b03841660009081526006602090815260408083208584528252808320548484528184208190558352600790915290208190555b5060009182526007602090815260408084208490556001600160a01b039094168352600681528383209183525290812055565b60085460009061131690600190611e77565b6000838152600960205260408120546008805493945090928490811061134c57634e487b7160e01b600052603260045260246000fd5b90600052602060002001549050806008838154811061137b57634e487b7160e01b600052603260045260246000fd5b60009182526020808320909101929092558281526009909152604080822084905585825281205560088054806113c157634e487b7160e01b600052603160045260246000fd5b6001900381819060005260206000200160009055905550505050565b60006113e883610898565b6001600160a01b039093166000908152600660209081526040808320868452825280832085905593825260079052919091209190915550565b3b151590565b82805461143390611e8e565b90600052602060002090601f016020900481019282611455576000855561149b565b82601f1061146e57805160ff191683800117855561149b565b8280016001018555821561149b579182015b8281111561149b578251825591602001919060010190611480565b506114a79291506114ab565b5090565b5b808211156114a757600081556001016114ac565b600067ffffffffffffffff808411156114db576114db611edf565b604051601f8501601f1916810160200182811182821017156114ff576114ff611edf565b60405284815291508183850186101561151757600080fd5b8484602083013760006020868301015250509392505050565b80356001600160a01b03811681146103e157600080fd5b600082601f830112611557578081fd5b611566838335602085016114c0565b9392505050565b60006020828403121561157e578081fd5b61156682611530565b60008060408385031215611599578081fd5b6115a283611530565b91506115b060208401611530565b90509250929050565b6000806000606084860312156115cd578081fd5b6115d684611530565b92506115e460208501611530565b9150604084013590509250925092565b60008060008060808587031215611609578081fd5b61161285611530565b935061162060208601611530565b925060408501359150606085013567ffffffffffffffff811115611642578182fd5b8501601f81018713611652578182fd5b611661878235602084016114c0565b91505092959194509250565b6000806040838503121561167f578182fd5b61168883611530565b91506020830135801515811461169c578182fd5b809150509250929050565b6000806000606084860312156116bb578283fd5b6116c484611530565b9250602084013567ffffffffffffffff8111156116df578283fd5b6116eb86828701611547565b925050604084013590509250925092565b6000806040838503121561170e578182fd5b61171783611530565b946020939093013593505050565b600060208284031215611736578081fd5b813561156681611ef5565b600060208284031215611752578081fd5b815161156681611ef5565b60006020828403121561176e578081fd5b813567ffffffffffffffff811115611784578182fd5b61052884828501611547565b6000602082840312156117a1578081fd5b5035919050565b60008151808452815b818110156117cd576020818501810151868301820152016117b1565b818111156117de5782602083870101525b50601f01601f19169290920160200192915050565b80546000906002810460018083168061180d57607f831692505b602080841082141561182d57634e487b7160e01b86526022600452602486fd5b81801561184157600181146118525761187f565b60ff1986168952848901965061187f565b61185b88611e53565b60005b868110156118775781548b82015290850190830161185e565b505084890196505b50505050505092915050565b600061052861189a83866117f3565b846117f3565b6001600160a01b0391909116815260200190565b6001600160a01b03858116825284166020820152604081018390526080606082018190526000906118e7908301846117a8565b9695505050505050565b901515815260200190565b60006020825261156660208301846117a8565b6020808252602b908201527f455243373231456e756d657261626c653a206f776e657220696e646578206f7560408201526a74206f6620626f756e647360a81b606082015260800190565b60208082526032908201527f4552433732313a207472616e7366657220746f206e6f6e20455243373231526560408201527131b2b4bb32b91034b6b83632b6b2b73a32b960711b606082015260800190565b60208082526026908201527f4f776e61626c653a206e6577206f776e657220697320746865207a65726f206160408201526564647265737360d01b606082015260800190565b6020808252601c908201527f4552433732313a20746f6b656e20616c7265616479206d696e74656400000000604082015260600190565b60208082526024908201527f4552433732313a207472616e7366657220746f20746865207a65726f206164646040820152637265737360e01b606082015260800190565b60208082526019908201527f4552433732313a20617070726f766520746f2063616c6c657200000000000000604082015260600190565b6020808252602c908201527f4552433732313a206f70657261746f7220717565727920666f72206e6f6e657860408201526b34b9ba32b73a103a37b5b2b760a11b606082015260800190565b60208082526038908201527f4552433732313a20617070726f76652063616c6c6572206973206e6f74206f7760408201527f6e6572206e6f7220617070726f76656420666f7220616c6c0000000000000000606082015260800190565b60208082526021908201527f4552433732314d657461646174613a206e6f6e6578697374656e7420746f6b656040820152603760f91b606082015260800190565b6020808252602a908201527f4552433732313a2062616c616e636520717565727920666f7220746865207a65604082015269726f206164647265737360b01b606082015260800190565b60208082526029908201527f4552433732313a206f776e657220717565727920666f72206e6f6e657869737460408201526832b73a103a37b5b2b760b91b606082015260800190565b6020808252818101527f4552433732313a206d696e7420746f20746865207a65726f2061646472657373604082015260600190565b6020808252602c908201527f4552433732313a20617070726f76656420717565727920666f72206e6f6e657860408201526b34b9ba32b73a103a37b5b2b760a11b606082015260800190565b6020808252602c908201527f4552433732314d657461646174613a2055524920736574206f66206e6f6e657860408201526b34b9ba32b73a103a37b5b2b760a11b606082015260800190565b6020808252818101527f4f776e61626c653a2063616c6c6572206973206e6f7420746865206f776e6572604082015260600190565b60208082526029908201527f4552433732313a207472616e73666572206f6620746f6b656e2074686174206960408201526839903737ba1037bbb760b91b606082015260800190565b60208082526021908201527f4552433732313a20617070726f76616c20746f2063757272656e74206f776e656040820152603960f91b606082015260800190565b60208082526031908201527f4552433732313a207472616e736665722063616c6c6572206973206e6f74206f6040820152701ddb995c881b9bdc88185c1c1c9bdd9959607a1b606082015260800190565b6020808252602c908201527f455243373231456e756d657261626c653a20676c6f62616c20696e646578206f60408201526b7574206f6620626f756e647360a01b606082015260800190565b90815260200190565b60009081526020902090565b60008219821115611e7257611e72611ec9565b500190565b600082821015611e8957611e89611ec9565b500390565b600281046001821680611ea257607f821691505b60208210811415611ec357634e487b7160e01b600052602260045260246000fd5b50919050565b634e487b7160e01b600052601160045260246000fd5b634e487b7160e01b600052604160045260246000fd5b6001600160e01b031981168114611f0b57600080fd5b5056fea264697066735822122083b25951a7fc5dfad532e6d95973d0185c0e7eec852b470dd20e0b79b68c0a1164736f6c63430008000033",
  "immutableReferences": {},
  "source": "// SPDX-License-Identifier: GPL\npragma solidity ^0.8.0;\n\n//import \"@openzeppelin/contracts/token/ERC721/ERC721.sol\";\nimport \"@openzeppelin/contracts/token/ERC721/extensions/ERC721Enumerable.sol\";\n\nimport \"@openzeppelin/contracts/utils/Counters.sol\";\nimport \"@openzeppelin/contracts/access/Ownable.sol\";\n\ncontract VOYRMemories is ERC721Enumerable, Ownable {\n\n    using Counters for Counters.Counter;\n    Counters.Counter private _tokenIds;\n\n    mapping (uint256 => string) private _tokenURIs;\n    mapping (uint256 => address) private _creator;\n    mapping (uint256 => uint256) private _creatorFee; //three mapping since lot of empty values\n\n    string public contract_URI_shop;\n    string public _base_uri;\n\n    constructor() ERC721(\"VOYRMemories\", \"VMEMO\") {\n        //see this example of contract_URI, some platform support returning a fee to originator\n        contract_URI_shop = \"\"; //example : https://ipfs.io/ipfs/Qmbqp5hr2i3ug14V7EyR9PYjCSzKnQ272NyT4pTcqkTrGs\n        _base_uri = \"\";\n        }\n\n    function mintNFT(address receiver, string memory new_URI, uint256 creator_fee) external returns (uint256){\n        _tokenIds.increment();\n        uint256 curr_id =  _tokenIds.current();\n        _mint(receiver, curr_id);\n        _setTokenURI(curr_id, new_URI);\n        _creator[curr_id] = msg.sender;\n        if(creator_fee != 0) {\n            _creatorFee[curr_id] = creator_fee;\n        }\n        return curr_id;\n    }\n\n    function _setTokenURI(uint256 tokenId, string memory _tokenURI) internal virtual {\n        require(_exists(tokenId), \"ERC721Metadata: URI set of nonexistent token\");\n        _tokenURIs[tokenId] = _tokenURI;\n    }\n\n    function tokenURI(uint256 token_id) public view override returns (string memory) {\n        require(_exists(token_id), \"ERC721Metadata: nonexistent token\");\n        return string(abi.encodePacked(_base_uri, _tokenURIs[token_id]));\n    }\n\n    function creator(uint256 token_id) external view returns (address) {\n        require(_exists(token_id), \"ERC721Metadata: nonexistent token\");\n        return _creator[token_id];\n    }\n\n    function setBaseURI(string memory new_base) external onlyOwner {\n        _base_uri = new_base;\n    }\n\n    function setContractUriShop(string memory new_contract_uri) public onlyOwner {\n        contract_URI_shop = new_contract_uri;\n    }\n\n    function contractURI() public view returns (string memory) {\n        return contract_URI_shop;\n    }\n\n    function setCreatorFee(uint256 tokenId, uint256 new_fee) internal virtual {\n        require(_exists(tokenId), \"ERC721Metadata: URI set of nonexistent token\");\n        _creatorFee[tokenId] = new_fee;\n    }\n\n    function creatorFee(uint256 token_id) public view returns (uint256) {\n        require(_exists(token_id), \"ERC721Metadata: nonexistent token\");\n        return _creatorFee[token_id];\n    }\n\n\n    function withdraw() onlyOwner public {\n      uint256 balance = address(this).balance;\n      payable(msg.sender).transfer(balance);\n    }\n}\n",
  "sourcePath": "/home/drgorilla/Documents/solidity/voyr_repoS/VOYR_Memories/contracts/VOYRMemories.sol",
  "compiler": {
    "name": "solc",
    "version": "0.8.0+commit.c7dfd78e.Emscripten.clang"
  },
  "schemaVersion": "3.4.0",
  "updatedAt": "2021-06-24T20:09:36.974Z",
  "networkType": "ethereum",
  "devdoc": {
    "kind": "dev",
    "methods": {
      "approve(address,uint256)": {
        "details": "See {IERC721-approve}."
      },
      "balanceOf(address)": {
        "details": "See {IERC721-balanceOf}."
      },
      "getApproved(uint256)": {
        "details": "See {IERC721-getApproved}."
      },
      "isApprovedForAll(address,address)": {
        "details": "See {IERC721-isApprovedForAll}."
      },
      "name()": {
        "details": "See {IERC721Metadata-name}."
      },
      "owner()": {
        "details": "Returns the address of the current owner."
      },
      "ownerOf(uint256)": {
        "details": "See {IERC721-ownerOf}."
      },
      "renounceOwnership()": {
        "details": "Leaves the contract without owner. It will not be possible to call `onlyOwner` functions anymore. Can only be called by the current owner. NOTE: Renouncing ownership will leave the contract without an owner, thereby removing any functionality that is only available to the owner."
      },
      "safeTransferFrom(address,address,uint256)": {
        "details": "See {IERC721-safeTransferFrom}."
      },
      "safeTransferFrom(address,address,uint256,bytes)": {
        "details": "See {IERC721-safeTransferFrom}."
      },
      "setApprovalForAll(address,bool)": {
        "details": "See {IERC721-setApprovalForAll}."
      },
      "supportsInterface(bytes4)": {
        "details": "See {IERC165-supportsInterface}."
      },
      "symbol()": {
        "details": "See {IERC721Metadata-symbol}."
      },
      "tokenByIndex(uint256)": {
        "details": "See {IERC721Enumerable-tokenByIndex}."
      },
      "tokenOfOwnerByIndex(address,uint256)": {
        "details": "See {IERC721Enumerable-tokenOfOwnerByIndex}."
      },
      "totalSupply()": {
        "details": "See {IERC721Enumerable-totalSupply}."
      },
      "transferFrom(address,address,uint256)": {
        "details": "See {IERC721-transferFrom}."
      },
      "transferOwnership(address)": {
        "details": "Transfers ownership of the contract to a new account (`newOwner`). Can only be called by the current owner."
      }
    },
    "version": 1
  },
  "userdoc": {
    "kind": "user",
    "methods": {},
    "version": 1
  }
}