{
  "contractName": "VOYRMarketplace",
  "abi": [
    {
      "inputs": [
        {
          "internalType": "address",
          "name": "VOYR_Memories_address",
          "type": "address"
        }
      ],
      "stateMutability": "nonpayable",
      "type": "constructor"
    },
    {
      "anonymous": false,
      "inputs": [
        {
          "indexed": false,
          "internalType": "address",
          "name": "seller",
          "type": "address"
        },
        {
          "indexed": false,
          "internalType": "address",
          "name": "buyer",
          "type": "address"
        },
        {
          "indexed": false,
          "internalType": "uint256",
          "name": "token_id",
          "type": "uint256"
        },
        {
          "indexed": false,
          "internalType": "uint256",
          "name": "final_price",
          "type": "uint256"
        }
      ],
      "name": "Auction_closed",
      "type": "event"
    },
    {
      "anonymous": false,
      "inputs": [
        {
          "indexed": false,
          "internalType": "address",
          "name": "sender",
          "type": "address"
        },
        {
          "indexed": false,
          "internalType": "uint256",
          "name": "amount",
          "type": "uint256"
        }
      ],
      "name": "New_bid",
      "type": "event"
    },
    {
      "anonymous": false,
      "inputs": [
        {
          "indexed": false,
          "internalType": "address",
          "name": "sender",
          "type": "address"
        },
        {
          "indexed": false,
          "internalType": "uint256",
          "name": "token_id",
          "type": "uint256"
        }
      ],
      "name": "New_listing",
      "type": "event"
    },
    {
      "anonymous": false,
      "inputs": [
        {
          "indexed": true,
          "internalType": "address",
          "name": "previousOwner",
          "type": "address"
        },
        {
          "indexed": true,
          "internalType": "address",
          "name": "newOwner",
          "type": "address"
        }
      ],
      "name": "OwnershipTransferred",
      "type": "event"
    },
    {
      "anonymous": false,
      "inputs": [
        {
          "indexed": false,
          "internalType": "address",
          "name": "to",
          "type": "address"
        },
        {
          "indexed": false,
          "internalType": "uint256",
          "name": "value",
          "type": "uint256"
        }
      ],
      "name": "Transfer",
      "type": "event"
    },
    {
      "stateMutability": "payable",
      "type": "fallback"
    },
    {
      "inputs": [],
      "name": "owner",
      "outputs": [
        {
          "internalType": "address",
          "name": "",
          "type": "address"
        }
      ],
      "stateMutability": "view",
      "type": "function"
    },
    {
      "inputs": [],
      "name": "renounceOwnership",
      "outputs": [],
      "stateMutability": "nonpayable",
      "type": "function"
    },
    {
      "inputs": [
        {
          "internalType": "address",
          "name": "newOwner",
          "type": "address"
        }
      ],
      "name": "transferOwnership",
      "outputs": [],
      "stateMutability": "nonpayable",
      "type": "function"
    },
    {
      "inputs": [
        {
          "internalType": "uint256",
          "name": "_token_id",
          "type": "uint256"
        },
        {
          "internalType": "uint256",
          "name": "_min_price",
          "type": "uint256"
        },
        {
          "internalType": "uint256",
          "name": "_deadline",
          "type": "uint256"
        }
      ],
      "name": "newAuction",
      "outputs": [],
      "stateMutability": "nonpayable",
      "type": "function"
    },
    {
      "inputs": [
        {
          "internalType": "uint256",
          "name": "_token_id",
          "type": "uint256"
        }
      ],
      "name": "newBid",
      "outputs": [],
      "stateMutability": "payable",
      "type": "function"
    },
    {
      "inputs": [
        {
          "internalType": "uint256",
          "name": "_token_id",
          "type": "uint256"
        }
      ],
      "name": "closeSale",
      "outputs": [],
      "stateMutability": "nonpayable",
      "type": "function"
    },
    {
      "inputs": [
        {
          "internalType": "address",
          "name": "seller",
          "type": "address"
        }
      ],
      "name": "auctionsBySellers",
      "outputs": [
        {
          "internalType": "uint256[]",
          "name": "",
          "type": "uint256[]"
        }
      ],
      "stateMutability": "view",
      "type": "function"
    },
    {
      "inputs": [],
      "name": "allAuctions",
      "outputs": [
        {
          "internalType": "uint256[]",
          "name": "",
          "type": "uint256[]"
        }
      ],
      "stateMutability": "view",
      "type": "function"
    },
    {
      "inputs": [
        {
          "internalType": "uint256",
          "name": "_token_id",
          "type": "uint256"
        }
      ],
      "name": "auctionDetails",
      "outputs": [
        {
          "components": [
            {
              "internalType": "address",
              "name": "seller",
              "type": "address"
            },
            {
              "internalType": "uint256",
              "name": "min_price",
              "type": "uint256"
            },
            {
              "internalType": "uint256",
              "name": "highest_bid",
              "type": "uint256"
            },
            {
              "internalType": "uint256",
              "name": "deadline",
              "type": "uint256"
            },
            {
              "internalType": "address",
              "name": "highest_bidder",
              "type": "address"
            }
          ],
          "internalType": "struct VOYRMarketplace.auction",
          "name": "",
          "type": "tuple"
        }
      ],
      "stateMutability": "view",
      "type": "function"
    },
    {
      "inputs": [
        {
          "internalType": "uint8",
          "name": "_new_rate",
          "type": "uint8"
        }
      ],
      "name": "setCreatorFeePercent",
      "outputs": [],
      "stateMutability": "nonpayable",
      "type": "function"
    },
    {
      "inputs": [
        {
          "internalType": "address",
          "name": "_operator",
          "type": "address"
        },
        {
          "internalType": "address",
          "name": "_from",
          "type": "address"
        },
        {
          "internalType": "uint256",
          "name": "_tokenId",
          "type": "uint256"
        },
        {
          "internalType": "bytes",
          "name": "_data",
          "type": "bytes"
        }
      ],
      "name": "onERC721Received",
      "outputs": [
        {
          "internalType": "bytes4",
          "name": "",
          "type": "bytes4"
        }
      ],
      "stateMutability": "nonpayable",
      "type": "function"
    }
  ],
  "bytecode": "0x608060405234801561001057600080fd5b5060405161161838038061161883398101604081905261002f916100ba565b60006100396100b6565b600080546001600160a01b0319166001600160a01b0383169081178255604051929350917f8be0079c531659141344cd1fd0a4f28419497f9722a3daafe3b4186f6b6457e0908290a3506001805460ff60a01b196001600160a01b039093166001600160a01b03199091161791909116600160a01b1790556100e8565b3390565b6000602082840312156100cb578081fd5b81516001600160a01b03811681146100e1578182fd5b9392505050565b611521806100f76000396000f3fe60806040526004361061009c5760003560e01c80638da5cb5b116100645780638da5cb5b1461015d578063a4223d531461017f578063c9099e101461019f578063e2543d1c146101bf578063ec4d925b146101d2578063f2fde38b146101f25761009c565b8063150b7a02146100a15780631bbcd4a5146100d7578063290f000a146100f9578063715018a61461011b5780638603d31a14610130575b600080fd5b3480156100ad57600080fd5b506100c16100bc366004610f8f565b610212565b6040516100ce91906111d2565b60405180910390f35b3480156100e357600080fd5b506100ec610222565b6040516100ce919061118e565b34801561010557600080fd5b5061011961011436600461108f565b61027a565b005b34801561012757600080fd5b50610119610410565b34801561013c57600080fd5b5061015061014b36600461105f565b610499565b6040516100ce91906113ec565b34801561016957600080fd5b5061017261052b565b6040516100ce9190611114565b34801561018b57600080fd5b5061011961019a36600461105f565b61053a565b3480156101ab57600080fd5b506100ec6101ba366004610f57565b610af4565b6101196101cd36600461105f565b610b60565b3480156101de57600080fd5b506101196101ed3660046110ba565b610c9d565b3480156101fe57600080fd5b5061011961020d366004610f57565b610cfc565b630a85bd0160e11b949350505050565b6060600480548060200260200160405190810160405280929190818152602001828054801561027057602002820191906000526020600020905b81548152602001906001019080831161025c575b5050505050905090565b600083815260026020526040902060030154156102b25760405162461bcd60e51b81526004016102a9906111e7565b60405180910390fd5b6102ba610eb6565b33808252602080830185815260608401858152600088815260028085526040808320885181546001600160a01b03199081166001600160a01b039283161783559651600180840191909155838b015194830194909455945160038083019190915560808a01516004928301805490981690871617909655805480840182557f8a35acfbc15ff81a39ae7d344fd709f28e8600b4aa8c65c6b64bfe7fe36bd19b018c9055878452948652808320805480840182559084529590922090940189905592549251632142170760e11b81529216926342842e0e9261039f9230918a9101611128565b600060405180830381600087803b1580156103b957600080fd5b505af11580156103cd573d6000803e3d6000fd5b505050507fa0e23e07b279cf0260ae22b5ed8f301dd8ca1dc1c0c75f08a31a6db66ed18e823385604051610402929190611175565b60405180910390a150505050565b610418610dbc565b6001600160a01b031661042961052b565b6001600160a01b03161461044f5760405162461bcd60e51b81526004016102a99061131f565b600080546040516001600160a01b03909116907f8be0079c531659141344cd1fd0a4f28419497f9722a3daafe3b4186f6b6457e0908390a3600080546001600160a01b0319169055565b6104a1610eb6565b6000828152600260205260409020600301546104cf5760405162461bcd60e51b81526004016102a990611256565b50600090815260026020818152604092839020835160a08101855281546001600160a01b039081168252600183015493820193909352928101549383019390935260038301546060830152600490920154909116608082015290565b6000546001600160a01b031690565b600081815260026020818152604092839020835160a08101855281546001600160a01b0390811682526001830154938201939093529281015493830193909352600383015460608301819052600490930154166080820152906105af5760405162461bcd60e51b81526004016102a9906112b1565b42816060015111156105d35760405162461bcd60e51b81526004016102a990611282565b600154604051630a216a2b60e31b81526000916001600160a01b03169063510b51589061060490869060040161142d565b60206040518083038186803b15801561061c57600080fd5b505afa158015610630573d6000803e3d6000fd5b505050506040513d601f19601f820116820180604052508101906106549190610f73565b60015460408401519192506000916106829160649161067c91600160a01b900460ff16610dc0565b90610dd3565b600085815260026020818152604080842080546001600160a01b03199081168255600182018690559381018590556003810185905560049081018054909416909355825481518184028101840190925280825294955092939083018282801561070a57602002820191906000526020600020905b8154815260200190600101908083116106f6575b5050505050905060005b81518110156107c4578582828151811061073e57634e487b7160e01b600052603260045260246000fd5b602002602001015114156107b257816001835161075b9190611475565b8151811061077957634e487b7160e01b600052603260045260246000fd5b60200260200101518282815181106107a157634e487b7160e01b600052603260045260246000fd5b6020026020010181815250506107c4565b806107bc8161148c565b915050610714565b5080516107d8906004906020840190610ef7565b5060048054806107f857634e487b7160e01b600052603160045260246000fd5b6000828152602080822083016000199081018390559092019092553382526003815260408083208054825181850281018501909352808352919290919083018282801561086457602002820191906000526020600020905b815481526020019060010190808311610850575b5050505050905060005b8151811015610986578682828151811061089857634e487b7160e01b600052603260045260246000fd5b602002602001015114156109745781600183516108b59190611475565b815181106108d357634e487b7160e01b600052603260045260246000fd5b602002602001015160036000336001600160a01b03166001600160a01b03168152602001908152602001600020828154811061091f57634e487b7160e01b600052603260045260246000fd5b600091825260208083209091019290925533815260039091526040902080548061095957634e487b7160e01b600052603160045260246000fd5b60019003818190600052602060002001600090559055610986565b8061097e8161148c565b91505061086e565b506001546040516378c3829b60e01b81526000916001600160a01b0316906378c3829b906109b8908a9060040161142d565b60206040518083038186803b1580156109d057600080fd5b505afa1580156109e4573d6000803e3d6000fd5b505050506040513d601f19601f82011682018060405250810190610a089190611077565b905080610a125750825b6001546080870151604051632142170760e11b81526001600160a01b03909216916342842e0e91610a4a913091908c90600401611128565b600060405180830381600087803b158015610a6457600080fd5b505af1158015610a78573d6000803e3d6000fd5b505087516040890151610a989350909150610a939084610ddf565b610deb565b610aa28582610deb565b7f04ba47c6947d60eb03de16729d5d359ce5e735d3e525fcb852dce92171c4439286600001518760800151898960400151604051610ae3949392919061114c565b60405180910390a150505050505050565b6001600160a01b038116600090815260036020908152604091829020805483518184028101840190945280845260609392830182828015610b5457602002820191906000526020600020905b815481526020019060010190808311610b40575b50505050509050919050565b600081815260026020818152604092839020835160a08101855281546001600160a01b039081168252600183015493820193909352928101549383019390935260038301546060830181905260049093015416608082015290610bd55760405162461bcd60e51b81526004016102a9906112e8565b348160200151108015610beb5750348160400151105b610c075760405162461bcd60e51b81526004016102a990611397565b4281606001511015610c2b5760405162461bcd60e51b81526004016102a9906113c3565b60808101516040808301516000858152600260208190529290203492810192909255600490910180546001600160a01b03191633179055610c6c8282610deb565b7f4fdb30905948940a7df4cbb2ec62f594a41923a48a397ace9a9c2f96c4e22c363334604051610402929190611175565b610ca5610dbc565b6001600160a01b0316610cb661052b565b6001600160a01b031614610cdc5760405162461bcd60e51b81526004016102a99061131f565b6001805460ff909216600160a01b0260ff60a01b19909216919091179055565b610d04610dbc565b6001600160a01b0316610d1561052b565b6001600160a01b031614610d3b5760405162461bcd60e51b81526004016102a99061131f565b6001600160a01b038116610d615760405162461bcd60e51b81526004016102a990611210565b600080546040516001600160a01b03808516939216917f8be0079c531659141344cd1fd0a4f28419497f9722a3daafe3b4186f6b6457e091a3600080546001600160a01b0319166001600160a01b0392909216919091179055565b3390565b6000610dcc8284611456565b9392505050565b6000610dcc8284611436565b6000610dcc8284611475565b604080516000808252602082019092526001600160a01b038416908390604051610e1591906110db565b60006040518083038185875af1925050503d8060008114610e52576040519150601f19603f3d011682016040523d82523d6000602084013e610e57565b606091505b5050905080610e785760405162461bcd60e51b81526004016102a990611354565b7f69ca02dd4edd7bf0a4abb9ed3b7af3f14778db5d61921c7dc7cd545266326de28383604051610ea9929190611175565b60405180910390a1505050565b6040518060a0016040528060006001600160a01b0316815260200160008152602001600081526020016000815260200160006001600160a01b031681525090565b828054828255906000526020600020908101928215610f32579160200282015b82811115610f32578251825591602001919060010190610f17565b50610f3e929150610f42565b5090565b5b80821115610f3e5760008155600101610f43565b600060208284031215610f68578081fd5b8135610dcc816114d3565b600060208284031215610f84578081fd5b8151610dcc816114d3565b60008060008060808587031215610fa4578283fd5b8435610faf816114d3565b9350602085810135610fc0816114d3565b935060408601359250606086013567ffffffffffffffff80821115610fe3578384fd5b818801915088601f830112610ff6578384fd5b813581811115611008576110086114bd565b604051601f8201601f191681018501838111828210171561102b5761102b6114bd565b60405281815283820185018b1015611041578586fd5b81858501868301379081019093019390935250939692955090935050565b600060208284031215611070578081fd5b5035919050565b600060208284031215611088578081fd5b5051919050565b6000806000606084860312156110a3578283fd5b505081359360208301359350604090920135919050565b6000602082840312156110cb578081fd5b813560ff81168114610dcc578182fd5b60008251815b818110156110fb57602081860181015185830152016110e1565b818111156111095782828501525b509190910192915050565b6001600160a01b0391909116815260200190565b6001600160a01b039384168152919092166020820152604081019190915260600190565b6001600160a01b0394851681529290931660208301526040820152606081019190915260800190565b6001600160a01b03929092168252602082015260400190565b6020808252825182820181905260009190848201906040850190845b818110156111c6578351835292840192918401916001016111aa565b50909695505050505050565b6001600160e01b031991909116815260200190565b6020808252600f908201526e27b733b7b4b7339030bab1ba34b7b760891b604082015260600190565b60208082526026908201527f4f776e61626c653a206e6577206f776e657220697320746865207a65726f206160408201526564647265737360d01b606082015260800190565b60208082526012908201527127379031bab93932b73a1030bab1ba34b7b760711b604082015260600190565b60208082526015908201527461756374696f6e207374696c6c2072756e6e696e6760581b604082015260600190565b60208082526018908201527f6e6f20636f72726573706f6e64696e672061756374696f6e0000000000000000604082015260600190565b60208082526018908201527f4e6f20636f72726573706f6e64696e672061756374696f6e0000000000000000604082015260600190565b6020808252818101527f4f776e61626c653a2063616c6c6572206973206e6f7420746865206f776e6572604082015260600190565b60208082526023908201527f5472616e7366657248656c7065723a204554485f5452414e534645525f46414960408201526213115160ea1b606082015260800190565b6020808252601290820152711c1b1858d94818481a1a59da195c88189a5960721b604082015260600190565b6020808252600f908201526e185d58dd1a5bdb88195e1c1a5c9959608a1b604082015260600190565b81516001600160a01b039081168252602080840151908301526040808401519083015260608084015190830152608092830151169181019190915260a00190565b90815260200190565b60008261145157634e487b7160e01b81526012600452602481fd5b500490565b6000816000190483118215151615611470576114706114a7565b500290565b600082821015611487576114876114a7565b500390565b60006000198214156114a0576114a06114a7565b5060010190565b634e487b7160e01b600052601160045260246000fd5b634e487b7160e01b600052604160045260246000fd5b6001600160a01b03811681146114e857600080fd5b5056fea2646970667358221220e0f6a4cd73f3f6de1a7b9d247d41774b1c29673b13d02d6e3917f9a6688cc98264736f6c63430008000033",
  "immutableReferences": {},
  "source": "// SPDX-License-Identifier: MIT\n\npragma solidity ^0.8.0;\n\n\nimport \"@openzeppelin/contracts/access/Ownable.sol\";\nimport \"@openzeppelin/contracts/utils/math/SafeMath.sol\";\n//import \"@openzeppelin/contracts/token/ERC721/extensions/IERC721Enumerable.sol\"; //implem by default in ERC721 - yeh, weird\nimport \"@openzeppelin/contracts/token/ERC721/IERC721Receiver.sol\";\nimport \"./VOYRMemories.sol\";\n\n\n\n\ncontract VOYRMarketplace is Ownable, IERC721Receiver {\n\n      using SafeMath for uint256;\n      VOYRMemories VOYR_Memories;\n\n      event New_listing(address sender, uint256 token_id);\n      event New_bid(address sender, uint256 amount);\n      event Auction_closed(address seller, address buyer, uint256 token_id, uint256 final_price);\n      event Transfer(address to, uint256 value);\n\n      uint8 creator_fee;\n\n      struct auction {\n        address seller;\n        uint256 min_price;\n        uint256 highest_bid;\n        uint256 deadline;\n        address highest_bidder;\n      }\n\n      mapping(uint256 => auction) private current_auctions; //token_id -> Auction\n      mapping(address => uint256[]) private auction_by_seller;\n      uint256[] private listed_tokens;\n\n      //@dev will only support VOYR_Memories NFTs -> this can be upgraded in future\n      //release if needed\n      constructor(address VOYR_Memories_address) {\n          VOYR_Memories = VOYRMemories(VOYR_Memories_address);\n          creator_fee = 1; //in %\n      }\n\n      //@dev front-end will have to check isApprovedForAll(sender, marketplace address)\n      //and setApprovalForAll(marketplace_addres, true)\n      function newAuction(uint256 _token_id, uint256 _min_price, uint256 _deadline) external {\n        require(current_auctions[_token_id].deadline == 0, \"Ongoing auction\");\n        auction memory current_new;\n        current_new.seller = msg.sender;\n        current_new.min_price = _min_price;\n        current_new.deadline = _deadline;\n\n        current_auctions[_token_id] = current_new;\n        listed_tokens.push(_token_id);\n        auction_by_seller[msg.sender].push(_token_id);\n\n        VOYR_Memories.safeTransferFrom(msg.sender, address(this), _token_id);\n        emit New_listing(msg.sender, _token_id);\n      }\n\n\n      function newBid(uint256 _token_id) external payable {\n        auction memory _current = current_auctions[_token_id];\n        require(_current.deadline != 0, \"No corresponding auction\");\n        require(_current.min_price < msg.value && _current.highest_bid < msg.value, \"place a higher bid\");\n        require(_current.deadline >= block.timestamp, \"auction expired\");\n\n        address prev_bidder = _current.highest_bidder;\n        uint256 prev_bid = _current.highest_bid;\n\n        current_auctions[_token_id].highest_bid = msg.value;\n        current_auctions[_token_id].highest_bidder = msg.sender;\n\n        safeTransfer(prev_bidder, prev_bid);\n        emit New_bid(msg.sender, msg.value);\n      }\n\n\n      function closeSale(uint256 _token_id) external {\n        auction memory _current = current_auctions[_token_id];\n        require(_current.deadline != 0, \"no corresponding auction\");\n        require(_current.deadline <= block.timestamp, \"auction still running\");\n\n        address _creator = VOYR_Memories.creator(_token_id);\n        uint256 _creator_fee = _current.highest_bid.mul(creator_fee).div(100);\n\n        delete current_auctions[_token_id];\n\n        uint256[] memory _listed_tokens = listed_tokens;\n        for (uint i=0; i<_listed_tokens.length; i++) { //O(n) :(\n            if (_listed_tokens[i] == _token_id) {\n                _listed_tokens[i] = _listed_tokens[_listed_tokens.length-1];\n                break;\n            }\n        }\n        listed_tokens = _listed_tokens;\n        listed_tokens.pop();\n\n        uint256[] memory current_seller_auctions = auction_by_seller[msg.sender];\n        for (uint i=0; i < current_seller_auctions.length; i++) {\n          if(current_seller_auctions[i] == _token_id) {\n            auction_by_seller[msg.sender][i] = current_seller_auctions[current_seller_auctions.length-1];\n            auction_by_seller[msg.sender].pop();\n            break;\n          }\n        }\n\n        uint256 _fee = VOYR_Memories.creatorFee(_token_id);\n        if(_fee == 0) {\n            _fee = _creator_fee;\n        }\n\n        VOYR_Memories.safeTransferFrom(address(this), _current.highest_bidder, _token_id);\n        safeTransfer(_current.seller, _current.highest_bid.sub(_fee));\n        safeTransfer(_creator, _fee);\n\n        emit Auction_closed(_current.seller, _current.highest_bidder, _token_id, _current.highest_bid);\n      }\n\n\n      function auctionsBySellers(address seller) external view returns(uint256[] memory){\n        return auction_by_seller[seller];\n      }\n\n\n      function allAuctions() external view returns(uint256[] memory) {\n        return listed_tokens;\n      }\n\n      function auctionDetails(uint256 _token_id) external view returns(auction memory) {\n        require(current_auctions[_token_id].deadline != 0, \"No current auction\");\n        return current_auctions[_token_id];\n      }\n\n      function setCreatorFeePercent(uint8 _new_rate) external onlyOwner {\n        creator_fee = _new_rate;\n      }\n\n      fallback () external payable {  //fallback. Why are you so generous anyway?\n         revert ();\n      }\n\n      function onERC721Received(address _operator, address _from, uint256 _tokenId, bytes memory _data) public override returns(bytes4) {\n        return 0x150b7a02;\n      }\n\n       //@dev taken from uniswapV2 TransferHelper lib\n       function safeTransfer(address to, uint value) internal {\n           (bool success,) = to.call{value:value}(new bytes(0));\n           require(success, 'TransferHelper: ETH_TRANSFER_FAILED');\n           emit Transfer(to, value);\n       }\n\n}\n",
  "sourcePath": "/home/drgorilla/Documents/solidity/voyr_repoS/VOYR_Memories/contracts/VOYRMarketplace.sol",
  "compiler": {
    "name": "solc",
    "version": "0.8.0+commit.c7dfd78e.Emscripten.clang"
  },
  "schemaVersion": "3.4.0",
  "updatedAt": "2021-06-24T19:42:54.153Z",
  "devdoc": {
    "kind": "dev",
    "methods": {
      "owner()": {
        "details": "Returns the address of the current owner."
      },
      "renounceOwnership()": {
        "details": "Leaves the contract without owner. It will not be possible to call `onlyOwner` functions anymore. Can only be called by the current owner. NOTE: Renouncing ownership will leave the contract without an owner, thereby removing any functionality that is only available to the owner."
      },
      "transferOwnership(address)": {
        "details": "Transfers ownership of the contract to a new account (`newOwner`). Can only be called by the current owner."
      }
    },
    "version": 1
  },
  "userdoc": {
    "kind": "user",
    "methods": {},
    "version": 1
  }
}