{
  "contractName": "VOYRMemories",
  "abi": [
    {
      "inputs": [],
      "stateMutability": "nonpayable",
      "type": "constructor"
    },
    {
      "anonymous": false,
      "inputs": [
        {
          "indexed": true,
          "internalType": "address",
          "name": "owner",
          "type": "address"
        },
        {
          "indexed": true,
          "internalType": "address",
          "name": "approved",
          "type": "address"
        },
        {
          "indexed": true,
          "internalType": "uint256",
          "name": "tokenId",
          "type": "uint256"
        }
      ],
      "name": "Approval",
      "type": "event"
    },
    {
      "anonymous": false,
      "inputs": [
        {
          "indexed": true,
          "internalType": "address",
          "name": "owner",
          "type": "address"
        },
        {
          "indexed": true,
          "internalType": "address",
          "name": "operator",
          "type": "address"
        },
        {
          "indexed": false,
          "internalType": "bool",
          "name": "approved",
          "type": "bool"
        }
      ],
      "name": "ApprovalForAll",
      "type": "event"
    },
    {
      "anonymous": false,
      "inputs": [
        {
          "indexed": true,
          "internalType": "address",
          "name": "previousOwner",
          "type": "address"
        },
        {
          "indexed": true,
          "internalType": "address",
          "name": "newOwner",
          "type": "address"
        }
      ],
      "name": "OwnershipTransferred",
      "type": "event"
    },
    {
      "anonymous": false,
      "inputs": [
        {
          "indexed": true,
          "internalType": "address",
          "name": "from",
          "type": "address"
        },
        {
          "indexed": true,
          "internalType": "address",
          "name": "to",
          "type": "address"
        },
        {
          "indexed": true,
          "internalType": "uint256",
          "name": "tokenId",
          "type": "uint256"
        }
      ],
      "name": "Transfer",
      "type": "event"
    },
    {
      "inputs": [],
      "name": "_base_uri",
      "outputs": [
        {
          "internalType": "string",
          "name": "",
          "type": "string"
        }
      ],
      "stateMutability": "view",
      "type": "function",
      "constant": true
    },
    {
      "inputs": [
        {
          "internalType": "address",
          "name": "to",
          "type": "address"
        },
        {
          "internalType": "uint256",
          "name": "tokenId",
          "type": "uint256"
        }
      ],
      "name": "approve",
      "outputs": [],
      "stateMutability": "nonpayable",
      "type": "function"
    },
    {
      "inputs": [
        {
          "internalType": "address",
          "name": "owner",
          "type": "address"
        }
      ],
      "name": "balanceOf",
      "outputs": [
        {
          "internalType": "uint256",
          "name": "",
          "type": "uint256"
        }
      ],
      "stateMutability": "view",
      "type": "function",
      "constant": true
    },
    {
      "inputs": [],
      "name": "contract_URI_shop",
      "outputs": [
        {
          "internalType": "string",
          "name": "",
          "type": "string"
        }
      ],
      "stateMutability": "view",
      "type": "function",
      "constant": true
    },
    {
      "inputs": [
        {
          "internalType": "uint256",
          "name": "tokenId",
          "type": "uint256"
        }
      ],
      "name": "getApproved",
      "outputs": [
        {
          "internalType": "address",
          "name": "",
          "type": "address"
        }
      ],
      "stateMutability": "view",
      "type": "function",
      "constant": true
    },
    {
      "inputs": [
        {
          "internalType": "address",
          "name": "owner",
          "type": "address"
        },
        {
          "internalType": "address",
          "name": "operator",
          "type": "address"
        }
      ],
      "name": "isApprovedForAll",
      "outputs": [
        {
          "internalType": "bool",
          "name": "",
          "type": "bool"
        }
      ],
      "stateMutability": "view",
      "type": "function",
      "constant": true
    },
    {
      "inputs": [],
      "name": "name",
      "outputs": [
        {
          "internalType": "string",
          "name": "",
          "type": "string"
        }
      ],
      "stateMutability": "view",
      "type": "function",
      "constant": true
    },
    {
      "inputs": [],
      "name": "owner",
      "outputs": [
        {
          "internalType": "address",
          "name": "",
          "type": "address"
        }
      ],
      "stateMutability": "view",
      "type": "function",
      "constant": true
    },
    {
      "inputs": [
        {
          "internalType": "uint256",
          "name": "tokenId",
          "type": "uint256"
        }
      ],
      "name": "ownerOf",
      "outputs": [
        {
          "internalType": "address",
          "name": "",
          "type": "address"
        }
      ],
      "stateMutability": "view",
      "type": "function",
      "constant": true
    },
    {
      "inputs": [],
      "name": "renounceOwnership",
      "outputs": [],
      "stateMutability": "nonpayable",
      "type": "function"
    },
    {
      "inputs": [
        {
          "internalType": "address",
          "name": "from",
          "type": "address"
        },
        {
          "internalType": "address",
          "name": "to",
          "type": "address"
        },
        {
          "internalType": "uint256",
          "name": "tokenId",
          "type": "uint256"
        }
      ],
      "name": "safeTransferFrom",
      "outputs": [],
      "stateMutability": "nonpayable",
      "type": "function"
    },
    {
      "inputs": [
        {
          "internalType": "address",
          "name": "from",
          "type": "address"
        },
        {
          "internalType": "address",
          "name": "to",
          "type": "address"
        },
        {
          "internalType": "uint256",
          "name": "tokenId",
          "type": "uint256"
        },
        {
          "internalType": "bytes",
          "name": "_data",
          "type": "bytes"
        }
      ],
      "name": "safeTransferFrom",
      "outputs": [],
      "stateMutability": "nonpayable",
      "type": "function"
    },
    {
      "inputs": [
        {
          "internalType": "address",
          "name": "operator",
          "type": "address"
        },
        {
          "internalType": "bool",
          "name": "approved",
          "type": "bool"
        }
      ],
      "name": "setApprovalForAll",
      "outputs": [],
      "stateMutability": "nonpayable",
      "type": "function"
    },
    {
      "inputs": [
        {
          "internalType": "bytes4",
          "name": "interfaceId",
          "type": "bytes4"
        }
      ],
      "name": "supportsInterface",
      "outputs": [
        {
          "internalType": "bool",
          "name": "",
          "type": "bool"
        }
      ],
      "stateMutability": "view",
      "type": "function",
      "constant": true
    },
    {
      "inputs": [],
      "name": "symbol",
      "outputs": [
        {
          "internalType": "string",
          "name": "",
          "type": "string"
        }
      ],
      "stateMutability": "view",
      "type": "function",
      "constant": true
    },
    {
      "inputs": [
        {
          "internalType": "address",
          "name": "from",
          "type": "address"
        },
        {
          "internalType": "address",
          "name": "to",
          "type": "address"
        },
        {
          "internalType": "uint256",
          "name": "tokenId",
          "type": "uint256"
        }
      ],
      "name": "transferFrom",
      "outputs": [],
      "stateMutability": "nonpayable",
      "type": "function"
    },
    {
      "inputs": [
        {
          "internalType": "address",
          "name": "newOwner",
          "type": "address"
        }
      ],
      "name": "transferOwnership",
      "outputs": [],
      "stateMutability": "nonpayable",
      "type": "function"
    },
    {
      "inputs": [
        {
          "internalType": "address",
          "name": "receiver",
          "type": "address"
        },
        {
          "internalType": "string",
          "name": "new_URI",
          "type": "string"
        },
        {
          "internalType": "uint256",
          "name": "creator_fee",
          "type": "uint256"
        }
      ],
      "name": "mintNFT",
      "outputs": [],
      "stateMutability": "nonpayable",
      "type": "function"
    },
    {
      "inputs": [
        {
          "internalType": "uint256",
          "name": "token_id",
          "type": "uint256"
        }
      ],
      "name": "tokenURI",
      "outputs": [
        {
          "internalType": "string",
          "name": "",
          "type": "string"
        }
      ],
      "stateMutability": "view",
      "type": "function",
      "constant": true
    },
    {
      "inputs": [
        {
          "internalType": "uint256",
          "name": "token_id",
          "type": "uint256"
        }
      ],
      "name": "creator",
      "outputs": [
        {
          "internalType": "address",
          "name": "",
          "type": "address"
        }
      ],
      "stateMutability": "view",
      "type": "function",
      "constant": true
    },
    {
      "inputs": [
        {
          "internalType": "string",
          "name": "new_base",
          "type": "string"
        }
      ],
      "name": "setBaseURI",
      "outputs": [],
      "stateMutability": "nonpayable",
      "type": "function"
    },
    {
      "inputs": [
        {
          "internalType": "string",
          "name": "new_contract_uri",
          "type": "string"
        }
      ],
      "name": "setContractUriShop",
      "outputs": [],
      "stateMutability": "nonpayable",
      "type": "function"
    },
    {
      "inputs": [],
      "name": "contractURI",
      "outputs": [
        {
          "internalType": "string",
          "name": "",
          "type": "string"
        }
      ],
      "stateMutability": "view",
      "type": "function",
      "constant": true
    },
    {
      "inputs": [
        {
          "internalType": "uint256",
          "name": "token_id",
          "type": "uint256"
        }
      ],
      "name": "creatorFee",
      "outputs": [
        {
          "internalType": "uint256",
          "name": "",
          "type": "uint256"
        }
      ],
      "stateMutability": "view",
      "type": "function",
      "constant": true
    },
    {
      "inputs": [],
      "name": "withdraw",
      "outputs": [],
      "stateMutability": "nonpayable",
      "type": "function"
    }
  ],
  "bytecode": "0x60806040523480156200001157600080fd5b50604080518082018252600c81526b564f59524d656d6f7269657360a01b602080830191825283518085019094526005845264564d454d4f60d81b908401528151919291620000639160009162000128565b5080516200007990600190602084019062000128565b50505060006200008e6200012460201b60201c565b600680546001600160a01b0319166001600160a01b038316908117909155604051919250906000907f8be0079c531659141344cd1fd0a4f28419497f9722a3daafe3b4186f6b6457e0908290a350604080516020810191829052600090819052620000fc91600b9162000128565b506040805160208101918290526000908190526200011d91600c9162000128565b506200020b565b3390565b8280546200013690620001ce565b90600052602060002090601f0160209004810192826200015a5760008555620001a5565b82601f106200017557805160ff1916838001178555620001a5565b82800160010185558215620001a5579182015b82811115620001a557825182559160200191906001019062000188565b50620001b3929150620001b7565b5090565b5b80821115620001b35760008155600101620001b8565b600281046001821680620001e357607f821691505b602082108114156200020557634e487b7160e01b600052602260045260246000fd5b50919050565b611acd806200021b6000396000f3fe608060405234801561001057600080fd5b50600436106101735760003560e01c806370a08231116100de578063a22cb46511610097578063e5aca89411610071578063e5aca894146102f9578063e8a3d4851461030c578063e985e9c514610314578063f2fde38b1461032757610173565b8063a22cb465146102c0578063b88d4fde146102d3578063c87b56dd146102e657610173565b806370a082311461026d578063715018a61461028d57806378c3829b1461029557806380499c22146102a85780638da5cb5b146102b057806395d89b41146102b857610173565b80633ccfd60b116101305780633ccfd60b1461021157806342842e0e14610219578063510b51581461022c57806355f804b31461023f5780635dd59b7d146102525780636352211e1461025a57610173565b806301ffc9a71461017857806306fdde03146101a1578063081812fc146101b657806308598df0146101d6578063095ea7b3146101eb57806323b872dd146101fe575b600080fd5b61018b610186366004611345565b61033a565b6040516101989190611511565b60405180910390f35b6101a9610382565b604051610198919061151c565b6101c96101c43660046113b0565b610414565b60405161019891906114c0565b6101e96101e43660046112c7565b610460565b005b6101e96101f936600461131c565b6104c8565b6101e961020c3660046111d9565b610560565b6101e9610598565b6101e96102273660046111d9565b61060a565b6101c961023a3660046113b0565b610625565b6101e961024d36600461137d565b610668565b6101a96106ba565b6101c96102683660046113b0565b610748565b61028061027b36600461118d565b61077d565b60405161019891906119d3565b6101e96107c1565b6102806102a33660046113b0565b61084a565b6101a9610884565b6101c9610891565b6101a96108a0565b6101e96102ce36600461128d565b6108af565b6101e96102e1366004611214565b61097d565b6101a96102f43660046113b0565b6109b6565b6101e961030736600461137d565b610a19565b6101a9610a6b565b61018b6103223660046111a7565b610a7a565b6101e961033536600461118d565b610aa8565b60006001600160e01b031982166380ac58cd60e01b148061036b57506001600160e01b03198216635b5e139f60e01b145b8061037a575061037a82610b69565b90505b919050565b60606000805461039190611a17565b80601f01602080910402602001604051908101604052809291908181526020018280546103bd90611a17565b801561040a5780601f106103df5761010080835404028352916020019161040a565b820191906000526020600020905b8154815290600101906020018083116103ed57829003601f168201915b5050505050905090565b600061041f82610b82565b6104445760405162461bcd60e51b815260040161043b9061182b565b60405180910390fd5b506000908152600460205260409020546001600160a01b031690565b61046a6007610b9f565b60006104766007610ba8565b90506104828482610bac565b61048c8184610c8b565b600081815260096020526040902080546001600160a01b0319163317905581156104c2576000818152600a602052604090208290555b50505050565b60006104d382610748565b9050806001600160a01b0316836001600160a01b031614156105075760405162461bcd60e51b815260040161043b90611941565b806001600160a01b0316610519610ccf565b6001600160a01b03161480610535575061053581610322610ccf565b6105515760405162461bcd60e51b815260040161043b906116c5565b61055b8383610cd3565b505050565b61057161056b610ccf565b82610d41565b61058d5760405162461bcd60e51b815260040161043b90611982565b61055b838383610dc6565b6105a0610ccf565b6001600160a01b03166105b1610891565b6001600160a01b0316146105d75760405162461bcd60e51b815260040161043b906118c3565b6040514790339082156108fc029083906000818181858888f19350505050158015610606573d6000803e3d6000fd5b5050565b61055b8383836040518060200160405280600081525061097d565b600061063082610b82565b61064c5760405162461bcd60e51b815260040161043b90611722565b506000908152600960205260409020546001600160a01b031690565b610670610ccf565b6001600160a01b0316610681610891565b6001600160a01b0316146106a75760405162461bcd60e51b815260040161043b906118c3565b805161060690600c906020840190611047565b600b80546106c790611a17565b80601f01602080910402602001604051908101604052809291908181526020018280546106f390611a17565b80156107405780601f1061071557610100808354040283529160200191610740565b820191906000526020600020905b81548152906001019060200180831161072357829003601f168201915b505050505081565b6000818152600260205260408120546001600160a01b03168061037a5760405162461bcd60e51b815260040161043b906117ad565b60006001600160a01b0382166107a55760405162461bcd60e51b815260040161043b90611763565b506001600160a01b031660009081526003602052604090205490565b6107c9610ccf565b6001600160a01b03166107da610891565b6001600160a01b0316146108005760405162461bcd60e51b815260040161043b906118c3565b6006546040516000916001600160a01b0316907f8be0079c531659141344cd1fd0a4f28419497f9722a3daafe3b4186f6b6457e0908390a3600680546001600160a01b0319169055565b600061085582610b82565b6108715760405162461bcd60e51b815260040161043b90611722565b506000908152600a602052604090205490565b600c80546106c790611a17565b6006546001600160a01b031690565b60606001805461039190611a17565b6108b7610ccf565b6001600160a01b0316826001600160a01b031614156108e85760405162461bcd60e51b815260040161043b90611642565b80600560006108f5610ccf565b6001600160a01b03908116825260208083019390935260409182016000908120918716808252919093529120805460ff191692151592909217909155610939610ccf565b6001600160a01b03167f17307eab39ab6107e8899845ad3d59bd9653f200f220920489ca2b5937696c31836040516109719190611511565b60405180910390a35050565b61098e610988610ccf565b83610d41565b6109aa5760405162461bcd60e51b815260040161043b90611982565b6104c284848484610ef3565b60606109c182610b82565b6109dd5760405162461bcd60e51b815260040161043b90611722565b600c60086000848152602001908152602001600020604051602001610a039291906114ab565b6040516020818303038152906040529050919050565b610a21610ccf565b6001600160a01b0316610a32610891565b6001600160a01b031614610a585760405162461bcd60e51b815260040161043b906118c3565b805161060690600b906020840190611047565b6060600b805461039190611a17565b6001600160a01b03918216600090815260056020908152604080832093909416825291909152205460ff1690565b610ab0610ccf565b6001600160a01b0316610ac1610891565b6001600160a01b031614610ae75760405162461bcd60e51b815260040161043b906118c3565b6001600160a01b038116610b0d5760405162461bcd60e51b815260040161043b90611581565b6006546040516001600160a01b038084169216907f8be0079c531659141344cd1fd0a4f28419497f9722a3daafe3b4186f6b6457e090600090a3600680546001600160a01b0319166001600160a01b0392909216919091179055565b6001600160e01b031981166301ffc9a760e01b14919050565b6000908152600260205260409020546001600160a01b0316151590565b80546001019055565b5490565b6001600160a01b038216610bd25760405162461bcd60e51b815260040161043b906117f6565b610bdb81610b82565b15610bf85760405162461bcd60e51b815260040161043b906115c7565b610c046000838361055b565b6001600160a01b0382166000908152600360205260408120805460019290610c2d9084906119e8565b909155505060008181526002602052604080822080546001600160a01b0319166001600160a01b03861690811790915590518392907fddf252ad1be2c89b69c2b068fc378daa952ba7f163c4a11628f55a4df523b3ef908290a45050565b610c9482610b82565b610cb05760405162461bcd60e51b815260040161043b90611877565b6000828152600860209081526040909120825161055b92840190611047565b3390565b600081815260046020526040902080546001600160a01b0319166001600160a01b0384169081179091558190610d0882610748565b6001600160a01b03167f8c5be1e5ebec7d5bd14f71427d1e84f3dd0314c0f7b2291e5b200ac8c7c3b92560405160405180910390a45050565b6000610d4c82610b82565b610d685760405162461bcd60e51b815260040161043b90611679565b6000610d7383610748565b9050806001600160a01b0316846001600160a01b03161480610dae5750836001600160a01b0316610da384610414565b6001600160a01b0316145b80610dbe5750610dbe8185610a7a565b949350505050565b826001600160a01b0316610dd982610748565b6001600160a01b031614610dff5760405162461bcd60e51b815260040161043b906118f8565b6001600160a01b038216610e255760405162461bcd60e51b815260040161043b906115fe565b610e3083838361055b565b610e3b600082610cd3565b6001600160a01b0383166000908152600360205260408120805460019290610e64908490611a00565b90915550506001600160a01b0382166000908152600360205260408120805460019290610e929084906119e8565b909155505060008181526002602052604080822080546001600160a01b0319166001600160a01b0386811691821790925591518493918716917fddf252ad1be2c89b69c2b068fc378daa952ba7f163c4a11628f55a4df523b3ef91a4505050565b610efe848484610dc6565b610f0a84848484610f26565b6104c25760405162461bcd60e51b815260040161043b9061152f565b6000610f3a846001600160a01b0316611041565b1561103657836001600160a01b031663150b7a02610f56610ccf565b8786866040518563ffffffff1660e01b8152600401610f7894939291906114d4565b602060405180830381600087803b158015610f9257600080fd5b505af1925050508015610fc2575060408051601f3d908101601f19168201909252610fbf91810190611361565b60015b61101c573d808015610ff0576040519150601f19603f3d011682016040523d82523d6000602084013e610ff5565b606091505b5080516110145760405162461bcd60e51b815260040161043b9061152f565b805181602001fd5b6001600160e01b031916630a85bd0160e11b149050610dbe565b506001949350505050565b3b151590565b82805461105390611a17565b90600052602060002090601f01602090048101928261107557600085556110bb565b82601f1061108e57805160ff19168380011785556110bb565b828001600101855582156110bb579182015b828111156110bb5782518255916020019190600101906110a0565b506110c79291506110cb565b5090565b5b808211156110c757600081556001016110cc565b600067ffffffffffffffff808411156110fb576110fb611a68565b604051601f8501601f19168101602001828111828210171561111f5761111f611a68565b60405284815291508183850186101561113757600080fd5b8484602083013760006020868301015250509392505050565b80356001600160a01b038116811461037d57600080fd5b600082601f830112611177578081fd5b611186838335602085016110e0565b9392505050565b60006020828403121561119e578081fd5b61118682611150565b600080604083850312156111b9578081fd5b6111c283611150565b91506111d060208401611150565b90509250929050565b6000806000606084860312156111ed578081fd5b6111f684611150565b925061120460208501611150565b9150604084013590509250925092565b60008060008060808587031215611229578081fd5b61123285611150565b935061124060208601611150565b925060408501359150606085013567ffffffffffffffff811115611262578182fd5b8501601f81018713611272578182fd5b611281878235602084016110e0565b91505092959194509250565b6000806040838503121561129f578182fd5b6112a883611150565b9150602083013580151581146112bc578182fd5b809150509250929050565b6000806000606084860312156112db578283fd5b6112e484611150565b9250602084013567ffffffffffffffff8111156112ff578283fd5b61130b86828701611167565b925050604084013590509250925092565b6000806040838503121561132e578182fd5b61133783611150565b946020939093013593505050565b600060208284031215611356578081fd5b813561118681611a7e565b600060208284031215611372578081fd5b815161118681611a7e565b60006020828403121561138e578081fd5b813567ffffffffffffffff8111156113a4578182fd5b610dbe84828501611167565b6000602082840312156113c1578081fd5b5035919050565b60008151808452815b818110156113ed576020818501810151868301820152016113d1565b818111156113fe5782602083870101525b50601f01601f19169290920160200192915050565b80546000906002810460018083168061142d57607f831692505b602080841082141561144d57634e487b7160e01b86526022600452602486fd5b81801561146157600181146114725761149f565b60ff1986168952848901965061149f565b61147b886119dc565b60005b868110156114975781548b82015290850190830161147e565b505084890196505b50505050505092915050565b6000610dbe6114ba8386611413565b84611413565b6001600160a01b0391909116815260200190565b6001600160a01b0385811682528416602082015260408101839052608060608201819052600090611507908301846113c8565b9695505050505050565b901515815260200190565b60006020825261118660208301846113c8565b60208082526032908201527f4552433732313a207472616e7366657220746f206e6f6e20455243373231526560408201527131b2b4bb32b91034b6b83632b6b2b73a32b960711b606082015260800190565b60208082526026908201527f4f776e61626c653a206e6577206f776e657220697320746865207a65726f206160408201526564647265737360d01b606082015260800190565b6020808252601c908201527f4552433732313a20746f6b656e20616c7265616479206d696e74656400000000604082015260600190565b60208082526024908201527f4552433732313a207472616e7366657220746f20746865207a65726f206164646040820152637265737360e01b606082015260800190565b60208082526019908201527f4552433732313a20617070726f766520746f2063616c6c657200000000000000604082015260600190565b6020808252602c908201527f4552433732313a206f70657261746f7220717565727920666f72206e6f6e657860408201526b34b9ba32b73a103a37b5b2b760a11b606082015260800190565b60208082526038908201527f4552433732313a20617070726f76652063616c6c6572206973206e6f74206f7760408201527f6e6572206e6f7220617070726f76656420666f7220616c6c0000000000000000606082015260800190565b60208082526021908201527f4552433732314d657461646174613a206e6f6e6578697374656e7420746f6b656040820152603760f91b606082015260800190565b6020808252602a908201527f4552433732313a2062616c616e636520717565727920666f7220746865207a65604082015269726f206164647265737360b01b606082015260800190565b60208082526029908201527f4552433732313a206f776e657220717565727920666f72206e6f6e657869737460408201526832b73a103a37b5b2b760b91b606082015260800190565b6020808252818101527f4552433732313a206d696e7420746f20746865207a65726f2061646472657373604082015260600190565b6020808252602c908201527f4552433732313a20617070726f76656420717565727920666f72206e6f6e657860408201526b34b9ba32b73a103a37b5b2b760a11b606082015260800190565b6020808252602c908201527f4552433732314d657461646174613a2055524920736574206f66206e6f6e657860408201526b34b9ba32b73a103a37b5b2b760a11b606082015260800190565b6020808252818101527f4f776e61626c653a2063616c6c6572206973206e6f7420746865206f776e6572604082015260600190565b60208082526029908201527f4552433732313a207472616e73666572206f6620746f6b656e2074686174206960408201526839903737ba1037bbb760b91b606082015260800190565b60208082526021908201527f4552433732313a20617070726f76616c20746f2063757272656e74206f776e656040820152603960f91b606082015260800190565b60208082526031908201527f4552433732313a207472616e736665722063616c6c6572206973206e6f74206f6040820152701ddb995c881b9bdc88185c1c1c9bdd9959607a1b606082015260800190565b90815260200190565b60009081526020902090565b600082198211156119fb576119fb611a52565b500190565b600082821015611a1257611a12611a52565b500390565b600281046001821680611a2b57607f821691505b60208210811415611a4c57634e487b7160e01b600052602260045260246000fd5b50919050565b634e487b7160e01b600052601160045260246000fd5b634e487b7160e01b600052604160045260246000fd5b6001600160e01b031981168114611a9457600080fd5b5056fea26469706673582212209bffde65a0c3590f36bc0d614b8e04d57b778675734c1cd6a293c95f8c56d37564736f6c63430008000033",
  "immutableReferences": {},
  "source": "// SPDX-License-Identifier: GPL\npragma solidity ^0.8.0;\n\nimport \"@openzeppelin/contracts/token/ERC721/ERC721.sol\";\nimport \"@openzeppelin/contracts/utils/Counters.sol\";\nimport \"@openzeppelin/contracts/access/Ownable.sol\";\n\ncontract VOYRMemories is ERC721, Ownable {\n\n    using Counters for Counters.Counter;\n    Counters.Counter private _tokenIds;\n\n    mapping (uint256 => string) private _tokenURIs;\n    mapping (uint256 => address) private _creator;\n    mapping (uint256 => uint256) private _creatorFee; //three mapping since lot of empty values\n\n    string public contract_URI_shop;\n    string public _base_uri;\n\n    constructor() ERC721(\"VOYRMemories\", \"VMEMO\") {\n        //see this example of contract_URI, some platform support returning a fee to originator\n        contract_URI_shop = \"\"; //example : https://ipfs.io/ipfs/Qmbqp5hr2i3ug14V7EyR9PYjCSzKnQ272NyT4pTcqkTrGs\n        _base_uri = \"\";\n        }\n\n    function mintNFT(address receiver, string memory new_URI, uint256 creator_fee) external {\n        _tokenIds.increment();\n        uint256 curr_id =  _tokenIds.current();\n        _mint(receiver, curr_id);\n        _setTokenURI(curr_id, new_URI);\n        _creator[curr_id] = msg.sender;\n        if(creator_fee != 0) {\n            _creatorFee[curr_id] = creator_fee;\n        }\n    }\n\n    function _setTokenURI(uint256 tokenId, string memory _tokenURI) internal virtual {\n        require(_exists(tokenId), \"ERC721Metadata: URI set of nonexistent token\");\n        _tokenURIs[tokenId] = _tokenURI;\n    }\n\n    function tokenURI(uint256 token_id) public view override returns (string memory) {\n        require(_exists(token_id), \"ERC721Metadata: nonexistent token\");\n        return string(abi.encodePacked(_base_uri, _tokenURIs[token_id]));\n    }\n\n    function creator(uint256 token_id) external view returns (address) {\n        require(_exists(token_id), \"ERC721Metadata: nonexistent token\");\n        return _creator[token_id];\n    }\n\n    function setBaseURI(string memory new_base) external onlyOwner {\n        _base_uri = new_base;\n    }\n    \n    function setContractUriShop(string memory new_contract_uri) public onlyOwner {\n        contract_URI_shop = new_contract_uri;\n    }\n\n    function contractURI() public view returns (string memory) {\n        return contract_URI_shop;\n    }\n    \n    function setCreatorFee(uint256 tokenId, uint256 new_fee) internal virtual {\n        require(_exists(tokenId), \"ERC721Metadata: URI set of nonexistent token\");\n        _creatorFee[tokenId] = new_fee;\n    }\n\n    function creatorFee(uint256 token_id) public view returns (uint256) {\n        require(_exists(token_id), \"ERC721Metadata: nonexistent token\");\n        return _creatorFee[token_id];\n    }\n\n\n    function withdraw() onlyOwner public {\n      uint256 balance = address(this).balance;\n      payable(msg.sender).transfer(balance);\n    }\n}\n",
  "sourcePath": "/home/drgorilla/Documents/solidity/voyr_repoS/VOYR_Memories/contracts/VOYRMemories.sol",
  "compiler": {
    "name": "solc",
    "version": "0.8.0+commit.c7dfd78e.Emscripten.clang"
  },
  "schemaVersion": "3.4.0",
  "updatedAt": "2021-06-21T20:50:13.407Z",
  "networkType": "ethereum",
  "devdoc": {
    "kind": "dev",
    "methods": {
      "approve(address,uint256)": {
        "details": "See {IERC721-approve}."
      },
      "balanceOf(address)": {
        "details": "See {IERC721-balanceOf}."
      },
      "getApproved(uint256)": {
        "details": "See {IERC721-getApproved}."
      },
      "isApprovedForAll(address,address)": {
        "details": "See {IERC721-isApprovedForAll}."
      },
      "name()": {
        "details": "See {IERC721Metadata-name}."
      },
      "owner()": {
        "details": "Returns the address of the current owner."
      },
      "ownerOf(uint256)": {
        "details": "See {IERC721-ownerOf}."
      },
      "renounceOwnership()": {
        "details": "Leaves the contract without owner. It will not be possible to call `onlyOwner` functions anymore. Can only be called by the current owner. NOTE: Renouncing ownership will leave the contract without an owner, thereby removing any functionality that is only available to the owner."
      },
      "safeTransferFrom(address,address,uint256)": {
        "details": "See {IERC721-safeTransferFrom}."
      },
      "safeTransferFrom(address,address,uint256,bytes)": {
        "details": "See {IERC721-safeTransferFrom}."
      },
      "setApprovalForAll(address,bool)": {
        "details": "See {IERC721-setApprovalForAll}."
      },
      "supportsInterface(bytes4)": {
        "details": "See {IERC165-supportsInterface}."
      },
      "symbol()": {
        "details": "See {IERC721Metadata-symbol}."
      },
      "transferFrom(address,address,uint256)": {
        "details": "See {IERC721-transferFrom}."
      },
      "transferOwnership(address)": {
        "details": "Transfers ownership of the contract to a new account (`newOwner`). Can only be called by the current owner."
      }
    },
    "version": 1
  },
  "userdoc": {
    "kind": "user",
    "methods": {},
    "version": 1
  }
}