{
  "contractName": "VOYRMemories",
  "abi": [
    {
      "inputs": [],
      "stateMutability": "nonpayable",
      "type": "constructor"
    },
    {
      "anonymous": false,
      "inputs": [
        {
          "indexed": true,
          "internalType": "address",
          "name": "owner",
          "type": "address"
        },
        {
          "indexed": true,
          "internalType": "address",
          "name": "approved",
          "type": "address"
        },
        {
          "indexed": true,
          "internalType": "uint256",
          "name": "tokenId",
          "type": "uint256"
        }
      ],
      "name": "Approval",
      "type": "event"
    },
    {
      "anonymous": false,
      "inputs": [
        {
          "indexed": true,
          "internalType": "address",
          "name": "owner",
          "type": "address"
        },
        {
          "indexed": true,
          "internalType": "address",
          "name": "operator",
          "type": "address"
        },
        {
          "indexed": false,
          "internalType": "bool",
          "name": "approved",
          "type": "bool"
        }
      ],
      "name": "ApprovalForAll",
      "type": "event"
    },
    {
      "anonymous": false,
      "inputs": [
        {
          "indexed": true,
          "internalType": "address",
          "name": "previousOwner",
          "type": "address"
        },
        {
          "indexed": true,
          "internalType": "address",
          "name": "newOwner",
          "type": "address"
        }
      ],
      "name": "OwnershipTransferred",
      "type": "event"
    },
    {
      "anonymous": false,
      "inputs": [
        {
          "indexed": true,
          "internalType": "address",
          "name": "from",
          "type": "address"
        },
        {
          "indexed": true,
          "internalType": "address",
          "name": "to",
          "type": "address"
        },
        {
          "indexed": true,
          "internalType": "uint256",
          "name": "tokenId",
          "type": "uint256"
        }
      ],
      "name": "Transfer",
      "type": "event"
    },
    {
      "inputs": [],
      "name": "_base_uri",
      "outputs": [
        {
          "internalType": "string",
          "name": "",
          "type": "string"
        }
      ],
      "stateMutability": "view",
      "type": "function"
    },
    {
      "inputs": [
        {
          "internalType": "address",
          "name": "to",
          "type": "address"
        },
        {
          "internalType": "uint256",
          "name": "tokenId",
          "type": "uint256"
        }
      ],
      "name": "approve",
      "outputs": [],
      "stateMutability": "nonpayable",
      "type": "function"
    },
    {
      "inputs": [
        {
          "internalType": "address",
          "name": "owner",
          "type": "address"
        }
      ],
      "name": "balanceOf",
      "outputs": [
        {
          "internalType": "uint256",
          "name": "",
          "type": "uint256"
        }
      ],
      "stateMutability": "view",
      "type": "function"
    },
    {
      "inputs": [],
      "name": "contract_URI_shop",
      "outputs": [
        {
          "internalType": "string",
          "name": "",
          "type": "string"
        }
      ],
      "stateMutability": "view",
      "type": "function"
    },
    {
      "inputs": [
        {
          "internalType": "uint256",
          "name": "tokenId",
          "type": "uint256"
        }
      ],
      "name": "getApproved",
      "outputs": [
        {
          "internalType": "address",
          "name": "",
          "type": "address"
        }
      ],
      "stateMutability": "view",
      "type": "function"
    },
    {
      "inputs": [
        {
          "internalType": "address",
          "name": "owner",
          "type": "address"
        },
        {
          "internalType": "address",
          "name": "operator",
          "type": "address"
        }
      ],
      "name": "isApprovedForAll",
      "outputs": [
        {
          "internalType": "bool",
          "name": "",
          "type": "bool"
        }
      ],
      "stateMutability": "view",
      "type": "function"
    },
    {
      "inputs": [],
      "name": "name",
      "outputs": [
        {
          "internalType": "string",
          "name": "",
          "type": "string"
        }
      ],
      "stateMutability": "view",
      "type": "function"
    },
    {
      "inputs": [],
      "name": "owner",
      "outputs": [
        {
          "internalType": "address",
          "name": "",
          "type": "address"
        }
      ],
      "stateMutability": "view",
      "type": "function"
    },
    {
      "inputs": [
        {
          "internalType": "uint256",
          "name": "tokenId",
          "type": "uint256"
        }
      ],
      "name": "ownerOf",
      "outputs": [
        {
          "internalType": "address",
          "name": "",
          "type": "address"
        }
      ],
      "stateMutability": "view",
      "type": "function"
    },
    {
      "inputs": [],
      "name": "renounceOwnership",
      "outputs": [],
      "stateMutability": "nonpayable",
      "type": "function"
    },
    {
      "inputs": [
        {
          "internalType": "address",
          "name": "from",
          "type": "address"
        },
        {
          "internalType": "address",
          "name": "to",
          "type": "address"
        },
        {
          "internalType": "uint256",
          "name": "tokenId",
          "type": "uint256"
        }
      ],
      "name": "safeTransferFrom",
      "outputs": [],
      "stateMutability": "nonpayable",
      "type": "function"
    },
    {
      "inputs": [
        {
          "internalType": "address",
          "name": "from",
          "type": "address"
        },
        {
          "internalType": "address",
          "name": "to",
          "type": "address"
        },
        {
          "internalType": "uint256",
          "name": "tokenId",
          "type": "uint256"
        },
        {
          "internalType": "bytes",
          "name": "_data",
          "type": "bytes"
        }
      ],
      "name": "safeTransferFrom",
      "outputs": [],
      "stateMutability": "nonpayable",
      "type": "function"
    },
    {
      "inputs": [
        {
          "internalType": "address",
          "name": "operator",
          "type": "address"
        },
        {
          "internalType": "bool",
          "name": "approved",
          "type": "bool"
        }
      ],
      "name": "setApprovalForAll",
      "outputs": [],
      "stateMutability": "nonpayable",
      "type": "function"
    },
    {
      "inputs": [
        {
          "internalType": "bytes4",
          "name": "interfaceId",
          "type": "bytes4"
        }
      ],
      "name": "supportsInterface",
      "outputs": [
        {
          "internalType": "bool",
          "name": "",
          "type": "bool"
        }
      ],
      "stateMutability": "view",
      "type": "function"
    },
    {
      "inputs": [],
      "name": "symbol",
      "outputs": [
        {
          "internalType": "string",
          "name": "",
          "type": "string"
        }
      ],
      "stateMutability": "view",
      "type": "function"
    },
    {
      "inputs": [
        {
          "internalType": "address",
          "name": "from",
          "type": "address"
        },
        {
          "internalType": "address",
          "name": "to",
          "type": "address"
        },
        {
          "internalType": "uint256",
          "name": "tokenId",
          "type": "uint256"
        }
      ],
      "name": "transferFrom",
      "outputs": [],
      "stateMutability": "nonpayable",
      "type": "function"
    },
    {
      "inputs": [
        {
          "internalType": "address",
          "name": "newOwner",
          "type": "address"
        }
      ],
      "name": "transferOwnership",
      "outputs": [],
      "stateMutability": "nonpayable",
      "type": "function"
    },
    {
      "inputs": [
        {
          "internalType": "address",
          "name": "receiver",
          "type": "address"
        },
        {
          "internalType": "string",
          "name": "new_URI",
          "type": "string"
        }
      ],
      "name": "mintNFT",
      "outputs": [],
      "stateMutability": "nonpayable",
      "type": "function"
    },
    {
      "inputs": [
        {
          "internalType": "uint256",
          "name": "token_id",
          "type": "uint256"
        }
      ],
      "name": "tokenURI",
      "outputs": [
        {
          "internalType": "string",
          "name": "",
          "type": "string"
        }
      ],
      "stateMutability": "view",
      "type": "function"
    },
    {
      "inputs": [
        {
          "internalType": "uint256",
          "name": "token_id",
          "type": "uint256"
        }
      ],
      "name": "creator",
      "outputs": [
        {
          "internalType": "address",
          "name": "",
          "type": "address"
        }
      ],
      "stateMutability": "view",
      "type": "function"
    },
    {
      "inputs": [
        {
          "internalType": "string",
          "name": "new_contract_uri",
          "type": "string"
        }
      ],
      "name": "setContractUriShop",
      "outputs": [],
      "stateMutability": "nonpayable",
      "type": "function"
    },
    {
      "inputs": [
        {
          "internalType": "string",
          "name": "new_base",
          "type": "string"
        }
      ],
      "name": "setBaseURI",
      "outputs": [],
      "stateMutability": "nonpayable",
      "type": "function"
    },
    {
      "inputs": [],
      "name": "contractURI",
      "outputs": [
        {
          "internalType": "string",
          "name": "",
          "type": "string"
        }
      ],
      "stateMutability": "view",
      "type": "function"
    },
    {
      "inputs": [],
      "name": "withdraw",
      "outputs": [],
      "stateMutability": "nonpayable",
      "type": "function"
    }
  ],
  "bytecode": "0x60806040523480156200001157600080fd5b50604080518082018252600c81526b564f59524d656d6f7269657360a01b602080830191825283518085019094526005845264564d454d4f60d81b908401528151919291620000639160009162000128565b5080516200007990600190602084019062000128565b50505060006200008e6200012460201b60201c565b600680546001600160a01b0319166001600160a01b038316908117909155604051919250906000907f8be0079c531659141344cd1fd0a4f28419497f9722a3daafe3b4186f6b6457e0908290a350604080516020810191829052600090819052620000fc91600a9162000128565b506040805160208101918290526000908190526200011d91600b9162000128565b506200020b565b3390565b8280546200013690620001ce565b90600052602060002090601f0160209004810192826200015a5760008555620001a5565b82601f106200017557805160ff1916838001178555620001a5565b82800160010185558215620001a5579182015b82811115620001a557825182559160200191906001019062000188565b50620001b3929150620001b7565b5090565b5b80821115620001b35760008155600101620001b8565b600281046001821680620001e357607f821691505b602082108114156200020557634e487b7160e01b600052602260045260246000fd5b50919050565b611a6f806200021b6000396000f3fe608060405234801561001057600080fd5b50600436106101585760003560e01c8063715018a6116100c3578063c87b56dd1161007c578063c87b56dd146102a5578063e5aca894146102b8578063e8a3d485146102cb578063e985e9c5146102d3578063eacabe14146102e6578063f2fde38b146102f957610158565b8063715018a61461025f57806380499c22146102675780638da5cb5b1461026f57806395d89b4114610277578063a22cb4651461027f578063b88d4fde1461029257610158565b806342842e0e1161011557806342842e0e146101eb578063510b5158146101fe57806355f804b3146102115780635dd59b7d146102245780636352211e1461022c57806370a082311461023f57610158565b806301ffc9a71461015d57806306fdde0314610186578063081812fc1461019b578063095ea7b3146101bb57806323b872dd146101d05780633ccfd60b146101e3575b600080fd5b61017061016b3660046112e7565b61030c565b60405161017d91906114b3565b60405180910390f35b61018e610354565b60405161017d91906114be565b6101ae6101a9366004611352565b6103e6565b60405161017d9190611462565b6101ce6101c93660046112be565b610432565b005b6101ce6101de366004611184565b6104ca565b6101ce610502565b6101ce6101f9366004611184565b610574565b6101ae61020c366004611352565b61058f565b6101ce61021f36600461131f565b6105d2565b61018e610624565b6101ae61023a366004611352565b6106b2565b61025261024d366004611138565b6106e7565b60405161017d9190611975565b6101ce61072b565b61018e6107b4565b6101ae6107c1565b61018e6107d0565b6101ce61028d366004611238565b6107df565b6101ce6102a03660046111bf565b6108ad565b61018e6102b3366004611352565b6108ec565b6101ce6102c636600461131f565b61094f565b61018e6109a1565b6101706102e1366004611152565b6109b0565b6101ce6102f4366004611272565b6109de565b6101ce610307366004611138565b610a53565b60006001600160e01b031982166380ac58cd60e01b148061033d57506001600160e01b03198216635b5e139f60e01b145b8061034c575061034c82610b14565b90505b919050565b606060008054610363906119b9565b80601f016020809104026020016040519081016040528092919081815260200182805461038f906119b9565b80156103dc5780601f106103b1576101008083540402835291602001916103dc565b820191906000526020600020905b8154815290600101906020018083116103bf57829003601f168201915b5050505050905090565b60006103f182610b2d565b6104165760405162461bcd60e51b815260040161040d906117cd565b60405180910390fd5b506000908152600460205260409020546001600160a01b031690565b600061043d826106b2565b9050806001600160a01b0316836001600160a01b031614156104715760405162461bcd60e51b815260040161040d906118e3565b806001600160a01b0316610483610b4a565b6001600160a01b0316148061049f575061049f816102e1610b4a565b6104bb5760405162461bcd60e51b815260040161040d90611667565b6104c58383610b4e565b505050565b6104db6104d5610b4a565b82610bbc565b6104f75760405162461bcd60e51b815260040161040d90611924565b6104c5838383610c41565b61050a610b4a565b6001600160a01b031661051b6107c1565b6001600160a01b0316146105415760405162461bcd60e51b815260040161040d90611865565b6040514790339082156108fc029083906000818181858888f19350505050158015610570573d6000803e3d6000fd5b5050565b6104c5838383604051806020016040528060008152506108ad565b600061059a82610b2d565b6105b65760405162461bcd60e51b815260040161040d906116c4565b506000908152600960205260409020546001600160a01b031690565b6105da610b4a565b6001600160a01b03166105eb6107c1565b6001600160a01b0316146106115760405162461bcd60e51b815260040161040d90611865565b805161057090600b906020840190610ff2565b600a8054610631906119b9565b80601f016020809104026020016040519081016040528092919081815260200182805461065d906119b9565b80156106aa5780601f1061067f576101008083540402835291602001916106aa565b820191906000526020600020905b81548152906001019060200180831161068d57829003601f168201915b505050505081565b6000818152600260205260408120546001600160a01b03168061034c5760405162461bcd60e51b815260040161040d9061174f565b60006001600160a01b03821661070f5760405162461bcd60e51b815260040161040d90611705565b506001600160a01b031660009081526003602052604090205490565b610733610b4a565b6001600160a01b03166107446107c1565b6001600160a01b03161461076a5760405162461bcd60e51b815260040161040d90611865565b6006546040516000916001600160a01b0316907f8be0079c531659141344cd1fd0a4f28419497f9722a3daafe3b4186f6b6457e0908390a3600680546001600160a01b0319169055565b600b8054610631906119b9565b6006546001600160a01b031690565b606060018054610363906119b9565b6107e7610b4a565b6001600160a01b0316826001600160a01b031614156108185760405162461bcd60e51b815260040161040d906115e4565b8060056000610825610b4a565b6001600160a01b03908116825260208083019390935260409182016000908120918716808252919093529120805460ff191692151592909217909155610869610b4a565b6001600160a01b03167f17307eab39ab6107e8899845ad3d59bd9653f200f220920489ca2b5937696c31836040516108a191906114b3565b60405180910390a35050565b6108be6108b8610b4a565b83610bbc565b6108da5760405162461bcd60e51b815260040161040d90611924565b6108e684848484610d6e565b50505050565b60606108f782610b2d565b6109135760405162461bcd60e51b815260040161040d906116c4565b600b6008600084815260200190815260200160002060405160200161093992919061144d565b6040516020818303038152906040529050919050565b610957610b4a565b6001600160a01b03166109686107c1565b6001600160a01b03161461098e5760405162461bcd60e51b815260040161040d90611865565b805161057090600a906020840190610ff2565b6060600a8054610363906119b9565b6001600160a01b03918216600090815260056020908152604080832093909416825291909152205460ff1690565b6109e86007610da1565b6109fb826109f66007610daa565b610dae565b610a0e610a086007610daa565b82610e8d565b3360096000610a1d6007610daa565b815260200190815260200160002060006101000a8154816001600160a01b0302191690836001600160a01b031602179055505050565b610a5b610b4a565b6001600160a01b0316610a6c6107c1565b6001600160a01b031614610a925760405162461bcd60e51b815260040161040d90611865565b6001600160a01b038116610ab85760405162461bcd60e51b815260040161040d90611523565b6006546040516001600160a01b038084169216907f8be0079c531659141344cd1fd0a4f28419497f9722a3daafe3b4186f6b6457e090600090a3600680546001600160a01b0319166001600160a01b0392909216919091179055565b6001600160e01b031981166301ffc9a760e01b14919050565b6000908152600260205260409020546001600160a01b0316151590565b3390565b600081815260046020526040902080546001600160a01b0319166001600160a01b0384169081179091558190610b83826106b2565b6001600160a01b03167f8c5be1e5ebec7d5bd14f71427d1e84f3dd0314c0f7b2291e5b200ac8c7c3b92560405160405180910390a45050565b6000610bc782610b2d565b610be35760405162461bcd60e51b815260040161040d9061161b565b6000610bee836106b2565b9050806001600160a01b0316846001600160a01b03161480610c295750836001600160a01b0316610c1e846103e6565b6001600160a01b0316145b80610c395750610c3981856109b0565b949350505050565b826001600160a01b0316610c54826106b2565b6001600160a01b031614610c7a5760405162461bcd60e51b815260040161040d9061189a565b6001600160a01b038216610ca05760405162461bcd60e51b815260040161040d906115a0565b610cab8383836104c5565b610cb6600082610b4e565b6001600160a01b0383166000908152600360205260408120805460019290610cdf9084906119a2565b90915550506001600160a01b0382166000908152600360205260408120805460019290610d0d90849061198a565b909155505060008181526002602052604080822080546001600160a01b0319166001600160a01b0386811691821790925591518493918716917fddf252ad1be2c89b69c2b068fc378daa952ba7f163c4a11628f55a4df523b3ef91a4505050565b610d79848484610c41565b610d8584848484610ed1565b6108e65760405162461bcd60e51b815260040161040d906114d1565b80546001019055565b5490565b6001600160a01b038216610dd45760405162461bcd60e51b815260040161040d90611798565b610ddd81610b2d565b15610dfa5760405162461bcd60e51b815260040161040d90611569565b610e06600083836104c5565b6001600160a01b0382166000908152600360205260408120805460019290610e2f90849061198a565b909155505060008181526002602052604080822080546001600160a01b0319166001600160a01b03861690811790915590518392907fddf252ad1be2c89b69c2b068fc378daa952ba7f163c4a11628f55a4df523b3ef908290a45050565b610e9682610b2d565b610eb25760405162461bcd60e51b815260040161040d90611819565b600082815260086020908152604090912082516104c592840190610ff2565b6000610ee5846001600160a01b0316610fec565b15610fe157836001600160a01b031663150b7a02610f01610b4a565b8786866040518563ffffffff1660e01b8152600401610f239493929190611476565b602060405180830381600087803b158015610f3d57600080fd5b505af1925050508015610f6d575060408051601f3d908101601f19168201909252610f6a91810190611303565b60015b610fc7573d808015610f9b576040519150601f19603f3d011682016040523d82523d6000602084013e610fa0565b606091505b508051610fbf5760405162461bcd60e51b815260040161040d906114d1565b805181602001fd5b6001600160e01b031916630a85bd0160e11b149050610c39565b506001949350505050565b3b151590565b828054610ffe906119b9565b90600052602060002090601f0160209004810192826110205760008555611066565b82601f1061103957805160ff1916838001178555611066565b82800160010185558215611066579182015b8281111561106657825182559160200191906001019061104b565b50611072929150611076565b5090565b5b808211156110725760008155600101611077565b600067ffffffffffffffff808411156110a6576110a6611a0a565b604051601f8501601f1916810160200182811182821017156110ca576110ca611a0a565b6040528481529150818385018610156110e257600080fd5b8484602083013760006020868301015250509392505050565b80356001600160a01b038116811461034f57600080fd5b600082601f830112611122578081fd5b6111318383356020850161108b565b9392505050565b600060208284031215611149578081fd5b611131826110fb565b60008060408385031215611164578081fd5b61116d836110fb565b915061117b602084016110fb565b90509250929050565b600080600060608486031215611198578081fd5b6111a1846110fb565b92506111af602085016110fb565b9150604084013590509250925092565b600080600080608085870312156111d4578081fd5b6111dd856110fb565b93506111eb602086016110fb565b925060408501359150606085013567ffffffffffffffff81111561120d578182fd5b8501601f8101871361121d578182fd5b61122c8782356020840161108b565b91505092959194509250565b6000806040838503121561124a578182fd5b611253836110fb565b915060208301358015158114611267578182fd5b809150509250929050565b60008060408385031215611284578182fd5b61128d836110fb565b9150602083013567ffffffffffffffff8111156112a8578182fd5b6112b485828601611112565b9150509250929050565b600080604083850312156112d0578182fd5b6112d9836110fb565b946020939093013593505050565b6000602082840312156112f8578081fd5b813561113181611a20565b600060208284031215611314578081fd5b815161113181611a20565b600060208284031215611330578081fd5b813567ffffffffffffffff811115611346578182fd5b610c3984828501611112565b600060208284031215611363578081fd5b5035919050565b60008151808452815b8181101561138f57602081850181015186830182015201611373565b818111156113a05782602083870101525b50601f01601f19169290920160200192915050565b8054600090600281046001808316806113cf57607f831692505b60208084108214156113ef57634e487b7160e01b86526022600452602486fd5b818015611403576001811461141457611441565b60ff19861689528489019650611441565b61141d8861197e565b60005b868110156114395781548b820152908501908301611420565b505084890196505b50505050505092915050565b6000610c3961145c83866113b5565b846113b5565b6001600160a01b0391909116815260200190565b6001600160a01b03858116825284166020820152604081018390526080606082018190526000906114a99083018461136a565b9695505050505050565b901515815260200190565b600060208252611131602083018461136a565b60208082526032908201527f4552433732313a207472616e7366657220746f206e6f6e20455243373231526560408201527131b2b4bb32b91034b6b83632b6b2b73a32b960711b606082015260800190565b60208082526026908201527f4f776e61626c653a206e6577206f776e657220697320746865207a65726f206160408201526564647265737360d01b606082015260800190565b6020808252601c908201527f4552433732313a20746f6b656e20616c7265616479206d696e74656400000000604082015260600190565b60208082526024908201527f4552433732313a207472616e7366657220746f20746865207a65726f206164646040820152637265737360e01b606082015260800190565b60208082526019908201527f4552433732313a20617070726f766520746f2063616c6c657200000000000000604082015260600190565b6020808252602c908201527f4552433732313a206f70657261746f7220717565727920666f72206e6f6e657860408201526b34b9ba32b73a103a37b5b2b760a11b606082015260800190565b60208082526038908201527f4552433732313a20617070726f76652063616c6c6572206973206e6f74206f7760408201527f6e6572206e6f7220617070726f76656420666f7220616c6c0000000000000000606082015260800190565b60208082526021908201527f4552433732314d657461646174613a206e6f6e6578697374656e7420746f6b656040820152603760f91b606082015260800190565b6020808252602a908201527f4552433732313a2062616c616e636520717565727920666f7220746865207a65604082015269726f206164647265737360b01b606082015260800190565b60208082526029908201527f4552433732313a206f776e657220717565727920666f72206e6f6e657869737460408201526832b73a103a37b5b2b760b91b606082015260800190565b6020808252818101527f4552433732313a206d696e7420746f20746865207a65726f2061646472657373604082015260600190565b6020808252602c908201527f4552433732313a20617070726f76656420717565727920666f72206e6f6e657860408201526b34b9ba32b73a103a37b5b2b760a11b606082015260800190565b6020808252602c908201527f4552433732314d657461646174613a2055524920736574206f66206e6f6e657860408201526b34b9ba32b73a103a37b5b2b760a11b606082015260800190565b6020808252818101527f4f776e61626c653a2063616c6c6572206973206e6f7420746865206f776e6572604082015260600190565b60208082526029908201527f4552433732313a207472616e73666572206f6620746f6b656e2074686174206960408201526839903737ba1037bbb760b91b606082015260800190565b60208082526021908201527f4552433732313a20617070726f76616c20746f2063757272656e74206f776e656040820152603960f91b606082015260800190565b60208082526031908201527f4552433732313a207472616e736665722063616c6c6572206973206e6f74206f6040820152701ddb995c881b9bdc88185c1c1c9bdd9959607a1b606082015260800190565b90815260200190565b60009081526020902090565b6000821982111561199d5761199d6119f4565b500190565b6000828210156119b4576119b46119f4565b500390565b6002810460018216806119cd57607f821691505b602082108114156119ee57634e487b7160e01b600052602260045260246000fd5b50919050565b634e487b7160e01b600052601160045260246000fd5b634e487b7160e01b600052604160045260246000fd5b6001600160e01b031981168114611a3657600080fd5b5056fea2646970667358221220db6427265e9853532a85b8da9f53a37a19c7cbe114c9dd455a9b783e4a8e8fa164736f6c63430008000033",
  "immutableReferences": {},
  "source": "// SPDX-License-Identifier: GPL\npragma solidity ^0.8.0;\n\nimport \"@openzeppelin/contracts/token/ERC721/ERC721.sol\";\nimport \"@openzeppelin/contracts/utils/Counters.sol\";\nimport \"@openzeppelin/contracts/access/Ownable.sol\";\n\ncontract VOYRMemories is ERC721, Ownable {\n\n    using Counters for Counters.Counter;\n    Counters.Counter private _tokenIds;\n\n    mapping (uint256 => string) private _tokenURIs;\n    mapping (uint256 => address) private _creator;\n\n    string public contract_URI_shop;\n    string public _base_uri;\n\n    constructor() ERC721(\"VOYRMemories\", \"VMEMO\") {\n        //see this example of contract_URI, some platform support returning a fee to originator\n        contract_URI_shop = \"\"; //example : https://ipfs.io/ipfs/Qmbqp5hr2i3ug14V7EyR9PYjCSzKnQ272NyT4pTcqkTrGs\n        _base_uri = \"\";\n        }\n\n    function mintNFT(address receiver, string memory new_URI) external {\n        _tokenIds.increment();\n        _mint(receiver, _tokenIds.current());\n        _setTokenURI(_tokenIds.current(), new_URI);\n        _creator[_tokenIds.current()] = msg.sender;\n    }\n\n    function _setTokenURI(uint256 tokenId, string memory _tokenURI) internal virtual {\n        require(_exists(tokenId), \"ERC721Metadata: URI set of nonexistent token\");\n        _tokenURIs[tokenId] = _tokenURI;\n    }\n\n    function tokenURI(uint256 token_id) public view override returns (string memory) {\n        require(_exists(token_id), \"ERC721Metadata: nonexistent token\");\n        return string(abi.encodePacked(_base_uri, _tokenURIs[token_id]));\n    }\n\n    function creator(uint256 token_id) external view returns (address) {\n        require(_exists(token_id), \"ERC721Metadata: nonexistent token\");\n        return _creator[token_id];\n    }\n\n    function setContractUriShop(string memory new_contract_uri) public onlyOwner {\n        contract_URI_shop = new_contract_uri;\n    }\n\n    function setBaseURI(string memory new_base) external onlyOwner {\n        _base_uri = new_base;\n    }\n\n    function contractURI() public view returns (string memory) {\n        return contract_URI_shop;\n    }\n\n    function withdraw() onlyOwner public {\n      uint256 balance = address(this).balance;\n      payable(msg.sender).transfer(balance);\n    }\n}\n",
  "sourcePath": "/home/drgorilla/Documents/solidity/voyr_repoS/VOYR_Memories/contracts/Memories_factory.sol",
  "compiler": {
    "name": "solc",
    "version": "0.8.0+commit.c7dfd78e.Emscripten.clang"
  },
  "schemaVersion": "3.4.0",
  "updatedAt": "2021-06-17T15:48:08.791Z",
  "devdoc": {
    "kind": "dev",
    "methods": {
      "approve(address,uint256)": {
        "details": "See {IERC721-approve}."
      },
      "balanceOf(address)": {
        "details": "See {IERC721-balanceOf}."
      },
      "getApproved(uint256)": {
        "details": "See {IERC721-getApproved}."
      },
      "isApprovedForAll(address,address)": {
        "details": "See {IERC721-isApprovedForAll}."
      },
      "name()": {
        "details": "See {IERC721Metadata-name}."
      },
      "owner()": {
        "details": "Returns the address of the current owner."
      },
      "ownerOf(uint256)": {
        "details": "See {IERC721-ownerOf}."
      },
      "renounceOwnership()": {
        "details": "Leaves the contract without owner. It will not be possible to call `onlyOwner` functions anymore. Can only be called by the current owner. NOTE: Renouncing ownership will leave the contract without an owner, thereby removing any functionality that is only available to the owner."
      },
      "safeTransferFrom(address,address,uint256)": {
        "details": "See {IERC721-safeTransferFrom}."
      },
      "safeTransferFrom(address,address,uint256,bytes)": {
        "details": "See {IERC721-safeTransferFrom}."
      },
      "setApprovalForAll(address,bool)": {
        "details": "See {IERC721-setApprovalForAll}."
      },
      "supportsInterface(bytes4)": {
        "details": "See {IERC165-supportsInterface}."
      },
      "symbol()": {
        "details": "See {IERC721Metadata-symbol}."
      },
      "transferFrom(address,address,uint256)": {
        "details": "See {IERC721-transferFrom}."
      },
      "transferOwnership(address)": {
        "details": "Transfers ownership of the contract to a new account (`newOwner`). Can only be called by the current owner."
      }
    },
    "version": 1
  },
  "userdoc": {
    "kind": "user",
    "methods": {},
    "version": 1
  }
}